{
  "contractName": "SustainImpact",
  "abi": [
    {
      "inputs": [],
      "stateMutability": "nonpayable",
      "type": "constructor"
    },
    {
      "anonymous": false,
      "inputs": [
        {
          "indexed": true,
          "internalType": "uint256",
          "name": "_orderId",
          "type": "uint256"
        }
      ],
      "name": "NewOrderId",
      "type": "event"
    },
    {
      "inputs": [
        {
          "internalType": "uint256",
          "name": "",
          "type": "uint256"
        }
      ],
      "name": "orderId",
      "outputs": [
        {
          "internalType": "uint256",
          "name": "",
          "type": "uint256"
        }
      ],
      "stateMutability": "view",
      "type": "function"
    },
    {
      "inputs": [
        {
          "internalType": "string",
          "name": "_username",
          "type": "string"
        },
        {
          "internalType": "string",
          "name": "_url",
          "type": "string"
        },
        {
          "internalType": "uint256",
          "name": "_phoneNumber",
          "type": "uint256"
        },
        {
          "internalType": "string",
          "name": "_deviceId1",
          "type": "string"
        },
        {
          "internalType": "uint256",
          "name": "_meterId1",
          "type": "uint256"
        },
        {
          "internalType": "string",
          "name": "_deviceId2",
          "type": "string"
        },
        {
          "internalType": "uint256",
          "name": "_meterId2",
          "type": "uint256"
        },
        {
          "internalType": "string",
          "name": "_deviceId3",
          "type": "string"
        },
        {
          "internalType": "uint256",
          "name": "_meterId3",
          "type": "uint256"
        },
        {
          "internalType": "string",
          "name": "_deviceId4",
          "type": "string"
        },
        {
          "internalType": "uint256",
          "name": "_meterId4",
          "type": "uint256"
        }
      ],
      "name": "createUser",
      "outputs": [],
      "stateMutability": "nonpayable",
      "type": "function"
    },
    {
      "inputs": [
        {
          "internalType": "address",
          "name": "_userAddress",
          "type": "address"
        },
        {
          "internalType": "string",
          "name": "_username",
          "type": "string"
        },
        {
          "internalType": "string",
          "name": "_url",
          "type": "string"
        },
        {
          "internalType": "uint256",
          "name": "_phoneNumber",
          "type": "uint256"
        }
      ],
      "name": "updateUser",
      "outputs": [],
      "stateMutability": "nonpayable",
      "type": "function"
    },
    {
      "inputs": [
        {
          "internalType": "address",
          "name": "_userAddress",
          "type": "address"
        },
        {
          "internalType": "string",
          "name": "_deviceId1",
          "type": "string"
        },
        {
          "internalType": "uint256",
          "name": "_meterId1",
          "type": "uint256"
        },
        {
          "internalType": "string",
          "name": "_deviceId2",
          "type": "string"
        },
        {
          "internalType": "uint256",
          "name": "_meterId2",
          "type": "uint256"
        },
        {
          "internalType": "string",
          "name": "_deviceId3",
          "type": "string"
        },
        {
          "internalType": "uint256",
          "name": "_meterId3",
          "type": "uint256"
        },
        {
          "internalType": "string",
          "name": "_deviceId4",
          "type": "string"
        },
        {
          "internalType": "uint256",
          "name": "_meterId4",
          "type": "uint256"
        }
      ],
      "name": "updateDevices",
      "outputs": [],
      "stateMutability": "nonpayable",
      "type": "function"
    },
    {
      "inputs": [
        {
          "internalType": "address",
          "name": "_userAddress",
          "type": "address"
        }
      ],
      "name": "getUser",
      "outputs": [
        {
          "internalType": "string",
          "name": "_username",
          "type": "string"
        },
        {
          "internalType": "string",
          "name": "_url",
          "type": "string"
        },
        {
          "internalType": "uint256",
          "name": "_phoneNumber",
          "type": "uint256"
        },
        {
          "internalType": "string[]",
          "name": "_deviceId",
          "type": "string[]"
        },
        {
          "internalType": "uint256[]",
          "name": "_meterId",
          "type": "uint256[]"
        }
      ],
      "stateMutability": "view",
      "type": "function"
    },
    {
      "inputs": [
        {
          "internalType": "uint256",
          "name": "_unit",
          "type": "uint256"
        },
        {
          "internalType": "uint256",
          "name": "_energy",
          "type": "uint256"
        },
        {
          "internalType": "string",
          "name": "_timeFrom",
          "type": "string"
        },
        {
          "internalType": "string",
          "name": "_timeTo",
          "type": "string"
        },
        {
          "internalType": "string",
          "name": "_deviceId",
          "type": "string"
        },
        {
          "internalType": "string",
          "name": "_location",
          "type": "string"
        },
        {
          "internalType": "uint256",
          "name": "_amountOfPower",
          "type": "uint256"
        },
        {
          "internalType": "uint256",
          "name": "_price",
          "type": "uint256"
        }
      ],
      "name": "createOrder",
      "outputs": [
        {
          "internalType": "bool",
          "name": "",
          "type": "bool"
        }
      ],
      "stateMutability": "nonpayable",
      "type": "function"
    },
    {
      "inputs": [],
      "name": "getOrderId",
      "outputs": [
        {
          "internalType": "uint256[]",
          "name": "_orderId",
          "type": "uint256[]"
        }
      ],
      "stateMutability": "view",
      "type": "function"
    },
    {
      "inputs": [
        {
          "internalType": "uint256",
          "name": "_orderId",
          "type": "uint256"
        }
      ],
      "name": "getOrder",
      "outputs": [
        {
          "internalType": "address",
          "name": "_userAddress",
          "type": "address"
        },
        {
          "internalType": "uint256",
          "name": "_unit",
          "type": "uint256"
        },
        {
          "internalType": "uint256",
          "name": "_energy",
          "type": "uint256"
        },
        {
          "internalType": "string",
          "name": "_timeFrom",
          "type": "string"
        },
        {
          "internalType": "string",
          "name": "_timeTo",
          "type": "string"
        },
        {
          "internalType": "string",
          "name": "_deviceId",
          "type": "string"
        },
        {
          "internalType": "string",
          "name": "_location",
          "type": "string"
        },
        {
          "internalType": "uint256",
          "name": "_amountOfPower",
          "type": "uint256"
        },
        {
          "internalType": "uint256",
          "name": "_price",
          "type": "uint256"
        },
        {
          "internalType": "address",
          "name": "_buyerAddress",
          "type": "address"
        },
        {
          "internalType": "string",
          "name": "_buyerDeviceId",
          "type": "string"
        },
        {
          "internalType": "string",
          "name": "_status",
          "type": "string"
        }
      ],
      "stateMutability": "view",
      "type": "function"
    },
    {
      "inputs": [
        {
          "internalType": "uint256",
          "name": "_orderId",
          "type": "uint256"
        },
        {
          "internalType": "uint256",
          "name": "_unit",
          "type": "uint256"
        },
        {
          "internalType": "uint256",
          "name": "_energy",
          "type": "uint256"
        },
        {
          "internalType": "string",
          "name": "_timeFrom",
          "type": "string"
        },
        {
          "internalType": "string",
          "name": "_timeTo",
          "type": "string"
        },
        {
          "internalType": "string",
          "name": "_deviceId",
          "type": "string"
        },
        {
          "internalType": "string",
          "name": "_location",
          "type": "string"
        },
        {
          "internalType": "uint256",
          "name": "_amountOfPower",
          "type": "uint256"
        },
        {
          "internalType": "uint256",
          "name": "_price",
          "type": "uint256"
        }
      ],
      "name": "updateOrder",
      "outputs": [],
      "stateMutability": "nonpayable",
      "type": "function"
    },
    {
      "inputs": [
        {
          "internalType": "uint256",
          "name": "_orderId",
          "type": "uint256"
        },
        {
          "internalType": "string",
          "name": "_buyerDeviceId",
          "type": "string"
        }
      ],
      "name": "acceptOrder",
      "outputs": [
        {
          "internalType": "string",
          "name": "",
          "type": "string"
        }
      ],
      "stateMutability": "nonpayable",
      "type": "function"
    },
    {
      "inputs": [
        {
          "internalType": "uint256",
          "name": "_orderId",
          "type": "uint256"
        }
      ],
      "name": "cancelOrder",
      "outputs": [
        {
          "internalType": "string",
          "name": "",
          "type": "string"
        }
      ],
      "stateMutability": "nonpayable",
      "type": "function"
    },
    {
      "inputs": [
        {
          "internalType": "uint256",
          "name": "_orderId",
          "type": "uint256"
        }
      ],
      "name": "cancelContract",
      "outputs": [
        {
          "internalType": "string",
          "name": "",
          "type": "string"
        }
      ],
      "stateMutability": "nonpayable",
      "type": "function"
    },
    {
      "inputs": [
        {
          "internalType": "uint256",
          "name": "_orderId",
          "type": "uint256"
        }
      ],
      "name": "deleteOrder",
      "outputs": [],
      "stateMutability": "nonpayable",
      "type": "function"
    },
    {
      "inputs": [
        {
          "internalType": "uint256",
          "name": "_orderId",
          "type": "uint256"
        },
        {
          "internalType": "uint256",
          "name": "_sellerMeterReading",
          "type": "uint256"
        },
        {
          "internalType": "uint256",
          "name": "_buyerMeterReading",
          "type": "uint256"
        }
      ],
      "name": "startTrading",
      "outputs": [],
      "stateMutability": "nonpayable",
      "type": "function"
    },
    {
      "inputs": [
        {
          "internalType": "uint256",
          "name": "_orderId",
          "type": "uint256"
        },
        {
          "internalType": "uint256",
          "name": "_sellerMeterReading",
          "type": "uint256"
        },
        {
          "internalType": "uint256",
          "name": "_buyerMeterReading",
          "type": "uint256"
        }
      ],
      "name": "endTrading",
      "outputs": [],
      "stateMutability": "nonpayable",
      "type": "function"
    },
    {
      "inputs": [
        {
          "internalType": "uint256",
          "name": "_orderId",
          "type": "uint256"
        },
        {
          "internalType": "uint256",
          "name": "_sellerFine",
          "type": "uint256"
        },
        {
          "internalType": "uint256",
          "name": "_buyerFine",
          "type": "uint256"
        }
      ],
      "name": "validateTrade",
      "outputs": [],
      "stateMutability": "nonpayable",
      "type": "function"
    },
    {
      "inputs": [
        {
          "internalType": "uint256",
          "name": "_orderId",
          "type": "uint256"
        }
      ],
      "name": "getTradeDetails",
      "outputs": [
        {
          "internalType": "string",
          "name": "_tradeStatus",
          "type": "string"
        },
        {
          "internalType": "uint256",
          "name": "_sellerMeterReading_S",
          "type": "uint256"
        },
        {
          "internalType": "uint256",
          "name": "_buyerMeterReading_S",
          "type": "uint256"
        },
        {
          "internalType": "uint256",
          "name": "_sellerMeterReading_E",
          "type": "uint256"
        },
        {
          "internalType": "uint256",
          "name": "_buyerMeterReading_E",
          "type": "uint256"
        },
        {
          "internalType": "uint256",
          "name": "_tradeStart",
          "type": "uint256"
        },
        {
          "internalType": "uint256",
          "name": "_tradeEnd",
          "type": "uint256"
        },
        {
          "internalType": "uint256",
          "name": "_sellerFine",
          "type": "uint256"
        },
        {
          "internalType": "uint256",
          "name": "_buyerFine",
          "type": "uint256"
        }
      ],
      "stateMutability": "view",
      "type": "function"
    }
  ],
  "bytecode": "0x60806040526000805534801561001457600080fd5b50613ffc806100246000396000f3fe608060405234801561001057600080fd5b506004361061010b5760003560e01c8063695730a5116100a2578063c746f51d11610071578063c746f51d146102e6578063d09ef24114610302578063d45c1dfd1461033d578063d96edc3f1461036d578063eaa56a01146103895761010b565b8063695730a51461022c5780636f77926b14610264578063707fb79e14610298578063a8496426146102c85761010b565b806311a00327116100de57806311a0032714610180578063280474501461019c578063514fcac7146101cc57806364a8cce9146101fc5761010b565b8063014c6966146101105780630ab7529e1461012c5780630bfe16f9146101485780630c289f8d14610164575b600080fd5b61012a60048036036101259190810190613281565b6103a5565b005b610146600480360361014191908101906132d0565b6105a0565b005b610162600480360361015d9190810190613281565b6107bc565b005b61017e60048036036101799190810190612db9565b6109b7565b005b61019a600480360361019591908101906130f2565b610b4c565b005b6101b660048036036101b191908101906130f2565b610cf5565b6040516101c39190613b90565b60405180910390f35b6101e660048036036101e191908101906130f2565b610ece565b6040516101f39190613b90565b60405180910390f35b6102166004803603610211919081019061311b565b611017565b6040516102239190613b90565b60405180910390f35b610246600480360361024191908101906130f2565b611326565b60405161025b99989796959493929190613c21565b60405180910390f35b61027e60048036036102799190810190612d90565b6114d5565b60405161028f959493929190613bb2565b60405180910390f35b6102b260048036036102ad91908101906130f2565b6119c2565b6040516102bf9190613db5565b60405180910390f35b6102d06119e3565b6040516102dd9190613b53565b60405180910390f35b61030060048036036102fb9190810190613281565b611a3b565b005b61031c600480360361031791908101906130f2565b611b77565b6040516103349c9b9a99989796959493929190613a6f565b60405180910390f35b6103576004803603610352919081019061316f565b6120b9565b6040516103649190613b75565b60405180910390f35b61038760048036036103829190810190612f72565b61231c565b005b6103a3600480360361039e9190810190612e4c565b612860565b005b3373ffffffffffffffffffffffffffffffffffffffff166003600085815260200190815260200160002060000160009054906101000a900473ffffffffffffffffffffffffffffffffffffffff1673ffffffffffffffffffffffffffffffffffffffff1614610449576040517f08c379a000000000000000000000000000000000000000000000000000000000815260040161044090613cf5565b60405180910390fd5b60405160200161045890613a15565b6040516020818303038152906040528051906020012060036000858152602001908152602001600020600b0160405160200161049491906139d4565b60405160208183030381529060405280519060200120146104ea576040517f08c379a00000000000000000000000000000000000000000000000000000000081526004016104e190613d35565b60405180910390fd5b6040518060400160405280600981526020017f496e697469617465640000000000000000000000000000000000000000000000815250600460008581526020019081526020016000206000019080519060200190610549929190612c6d565b50816004600085815260200190815260200160002060010181905550806004600085815260200190815260200160002060020181905550426004600085815260200190815260200160002060050181905550505050565b3373ffffffffffffffffffffffffffffffffffffffff16600360008b815260200190815260200160002060000160009054906101000a900473ffffffffffffffffffffffffffffffffffffffff1673ffffffffffffffffffffffffffffffffffffffff1614610644576040517f08c379a000000000000000000000000000000000000000000000000000000000815260040161063b90613cf5565b60405180910390fd5b33600360008b815260200190815260200160002060000160006101000a81548173ffffffffffffffffffffffffffffffffffffffff021916908373ffffffffffffffffffffffffffffffffffffffff16021790555087600360008b81526020019081526020016000206001018190555086600360008b81526020019081526020016000206002018190555085600360008b815260200190815260200160002060030190805190602001906106f9929190612c6d565b5084600360008b81526020019081526020016000206004019080519060200190610724929190612c6d565b5083600360008b8152602001908152602001600020600501908051906020019061074f929190612c6d565b5082600360008b8152602001908152602001600020600601908051906020019061077a929190612c6d565b5081600360008b81526020019081526020016000206007018190555080600360008b815260200190815260200160002060080181905550505050505050505050565b3373ffffffffffffffffffffffffffffffffffffffff166003600085815260200190815260200160002060000160009054906101000a900473ffffffffffffffffffffffffffffffffffffffff1673ffffffffffffffffffffffffffffffffffffffff1614610860576040517f08c379a000000000000000000000000000000000000000000000000000000000815260040161085790613cf5565b60405180910390fd5b60405160200161086f90613a00565b60405160208183030381529060405280519060200120600460008581526020019081526020016000206000016040516020016108ab91906139d4565b6040516020818303038152906040528051906020012014610901576040517f08c379a00000000000000000000000000000000000000000000000000000000081526004016108f890613d15565b60405180910390fd5b6040518060400160405280600581526020017f436c6f7365000000000000000000000000000000000000000000000000000000815250600460008581526020019081526020016000206000019080519060200190610960929190612c6d565b50816004600085815260200190815260200160002060030181905550806004600085815260200190815260200160002060040181905550426004600085815260200190815260200160002060060181905550505050565b600260008573ffffffffffffffffffffffffffffffffffffffff1673ffffffffffffffffffffffffffffffffffffffff16815260200190815260200160002060010160009054906101000a900473ffffffffffffffffffffffffffffffffffffffff1673ffffffffffffffffffffffffffffffffffffffff163373ffffffffffffffffffffffffffffffffffffffff1614610a5157600080fd5b82600260003373ffffffffffffffffffffffffffffffffffffffff1673ffffffffffffffffffffffffffffffffffffffff1681526020019081526020016000206002019080519060200190610aa7929190612c6d565b5081600260003373ffffffffffffffffffffffffffffffffffffffff1673ffffffffffffffffffffffffffffffffffffffff1681526020019081526020016000206003019080519060200190610afe929190612c6d565b5080600260003373ffffffffffffffffffffffffffffffffffffffff1673ffffffffffffffffffffffffffffffffffffffff1681526020019081526020016000206004018190555050505050565b3373ffffffffffffffffffffffffffffffffffffffff166003600083815260200190815260200160002060000160009054906101000a900473ffffffffffffffffffffffffffffffffffffffff1673ffffffffffffffffffffffffffffffffffffffff1614610bf0576040517f08c379a0000000000000000000000000000000000000000000000000000000008152600401610be790613cf5565b60405180910390fd5b604051602001610bff90613a3f565b6040516020818303038152906040528051906020012060036000838152602001908152602001600020600b01604051602001610c3b91906139d4565b604051602081830303815290604052805190602001201415610c92576040517f08c379a0000000000000000000000000000000000000000000000000000000008152600401610c8990613cb5565b60405180910390fd5b6040518060400160405280600781526020017f44656c657465640000000000000000000000000000000000000000000000000081525060036000838152602001908152602001600020600b019080519060200190610cf1929190612c6d565b5050565b60603373ffffffffffffffffffffffffffffffffffffffff166003600084815260200190815260200160002060090160009054906101000a900473ffffffffffffffffffffffffffffffffffffffff1673ffffffffffffffffffffffffffffffffffffffff1614610d9b576040517f08c379a0000000000000000000000000000000000000000000000000000000008152600401610d9290613d55565b60405180910390fd5b60606040518060400160405280601281526020017f436f6e74726163742043616e63656c6c6564000000000000000000000000000081525090506040518060400160405280600781526020017f437265617465640000000000000000000000000000000000000000000000000081525060036000858152602001908152602001600020600b019080519060200190610e34929190612c6d565b5060006003600085815260200190815260200160002060090160006101000a81548173ffffffffffffffffffffffffffffffffffffffff021916908373ffffffffffffffffffffffffffffffffffffffff1602179055506040518060200160405280600081525060036000858152602001908152602001600020600a019080519060200190610ec4929190612c6d565b5080915050919050565b60603373ffffffffffffffffffffffffffffffffffffffff166003600084815260200190815260200160002060000160009054906101000a900473ffffffffffffffffffffffffffffffffffffffff1673ffffffffffffffffffffffffffffffffffffffff1614610f74576040517f08c379a0000000000000000000000000000000000000000000000000000000008152600401610f6b90613cf5565b60405180910390fd5b60606040518060400160405280600d81526020017f4f726465722043616e636c65640000000000000000000000000000000000000081525090506040518060400160405280600981526020017f43616e63656c6c6564000000000000000000000000000000000000000000000081525060036000858152602001908152602001600020600b01908051906020019061100d929190612c6d565b5080915050919050565b60603373ffffffffffffffffffffffffffffffffffffffff166003600085815260200190815260200160002060000160009054906101000a900473ffffffffffffffffffffffffffffffffffffffff1673ffffffffffffffffffffffffffffffffffffffff1614156110be576040517f08c379a00000000000000000000000000000000000000000000000000000000081526004016110b590613d95565b60405180910390fd5b6040516020016110cd90613a15565b6040516020818303038152906040528051906020012060036000858152602001908152602001600020600b0160405160200161110991906139d4565b604051602081830303815290604052805190602001201415611160576040517f08c379a000000000000000000000000000000000000000000000000000000000815260040161115790613cb5565b60405180910390fd5b60405160200161116f90613a2a565b6040516020818303038152906040528051906020012060036000858152602001908152602001600020600b016040516020016111ab91906139d4565b604051602081830303815290604052805190602001201415611202576040517f08c379a00000000000000000000000000000000000000000000000000000000081526004016111f990613d75565b60405180910390fd5b60606040518060400160405280600e81526020017f4f726465722041636365707465640000000000000000000000000000000000008152509050336003600086815260200190815260200160002060090160006101000a81548173ffffffffffffffffffffffffffffffffffffffff021916908373ffffffffffffffffffffffffffffffffffffffff1602179055508260036000868152602001908152602001600020600a0190805190602001906112bb929190612c6d565b506040518060400160405280600881526020017f416363657074656400000000000000000000000000000000000000000000000081525060036000868152602001908152602001600020600b01908051906020019061131b929190612c6d565b508091505092915050565b6060600080600080600080600080600460008b81526020019081526020016000206000018054600181600116156101000203166002900480601f0160208091040260200160405190810160405280929190818152602001828054600181600116156101000203166002900480156113de5780601f106113b3576101008083540402835291602001916113de565b820191906000526020600020905b8154815290600101906020018083116113c157829003601f168201915b50505050509850600460008b8152602001908152602001600020600101549750600460008b8152602001908152602001600020600201549650600460008b8152602001908152602001600020600301549550600460008b8152602001908152602001600020600401549450600460008b8152602001908152602001600020600501549350600460008b8152602001908152602001600020600601549250600460008b8152602001908152602001600020600701549150600460008b81526020019081526020016000206008015490508888888888888888889850985098509850985098509850985098509193959799909294969850565b6060806000606080600260008773ffffffffffffffffffffffffffffffffffffffff1673ffffffffffffffffffffffffffffffffffffffff1681526020019081526020016000206005015460405190808252806020026020018201604052801561155357816020015b606081526020019060019003908161153e5790505b509150600260008773ffffffffffffffffffffffffffffffffffffffff1673ffffffffffffffffffffffffffffffffffffffff168152602001908152602001600020600501546040519080825280602002602001820160405280156115c75781602001602082028038833980820191505090505b509050600260008773ffffffffffffffffffffffffffffffffffffffff1673ffffffffffffffffffffffffffffffffffffffff1681526020019081526020016000206002018054600181600116156101000203166002900480601f0160208091040260200160405190810160405280929190818152602001828054600181600116156101000203166002900480156116a05780601f10611675576101008083540402835291602001916116a0565b820191906000526020600020905b81548152906001019060200180831161168357829003601f168201915b50505050509450600260008773ffffffffffffffffffffffffffffffffffffffff1673ffffffffffffffffffffffffffffffffffffffff1681526020019081526020016000206003018054600181600116156101000203166002900480601f01602080910402602001604051908101604052809291908181526020018280546001816001161561010002031660029004801561177d5780601f106117525761010080835404028352916020019161177d565b820191906000526020600020905b81548152906001019060200180831161176057829003601f168201915b50505050509350600260008773ffffffffffffffffffffffffffffffffffffffff1673ffffffffffffffffffffffffffffffffffffffff16815260200190815260200160002060040154925060008090506000600190505b600260008973ffffffffffffffffffffffffffffffffffffffff1673ffffffffffffffffffffffffffffffffffffffff1681526020019081526020016000206005015481116119a857600260008973ffffffffffffffffffffffffffffffffffffffff1673ffffffffffffffffffffffffffffffffffffffff16815260200190815260200160002060060160008281526020019081526020016000206000018054600181600116156101000203166002900480601f0160208091040260200160405190810160405280929190818152602001828054600181600116156101000203166002900480156119085780601f106118dd57610100808354040283529160200191611908565b820191906000526020600020905b8154815290600101906020018083116118eb57829003601f168201915b505050505084838151811061191957fe5b6020026020010181905250600260008973ffffffffffffffffffffffffffffffffffffffff1673ffffffffffffffffffffffffffffffffffffffff16815260200190815260200160002060060160008281526020019081526020016000206001015483838151811061198757fe5b602002602001018181525050818060010192505080806001019150506117d5565b508585858585955095509550955095505091939590929450565b600181815481106119cf57fe5b906000526020600020016000915090505481565b60606001805480602002602001604051908101604052809291908181526020018280548015611a3157602002820191906000526020600020905b815481526020019060010190808311611a1d575b5050505050905090565b604051602001611a4a906139eb565b6040516020818303038152906040528051906020012060046000858152602001908152602001600020600001604051602001611a8691906139d4565b6040516020818303038152906040528051906020012014611adc576040517f08c379a0000000000000000000000000000000000000000000000000000000008152600401611ad390613cd5565b60405180910390fd5b6040518060400160405280600f81526020017f4f726465722056616c6964617465640000000000000000000000000000000000815250600460008581526020019081526020016000206000019080519060200190611b3b929190612c6d565b50816004600085815260200190815260200160002060070181905550806004600085815260200190815260200160002060080181905550505050565b60008060006060806060806000806000606080600360008e815260200190815260200160002060000160009054906101000a900473ffffffffffffffffffffffffffffffffffffffff169b50600360008e8152602001908152602001600020600101549a50600360008e8152602001908152602001600020600201549950600360008e81526020019081526020016000206003018054600181600116156101000203166002900480601f016020809104026020016040519081016040528092919081815260200182805460018160011615610100020316600290048015611c9f5780601f10611c7457610100808354040283529160200191611c9f565b820191906000526020600020905b815481529060010190602001808311611c8257829003601f168201915b50505050509850600360008e81526020019081526020016000206004018054600181600116156101000203166002900480601f016020809104026020016040519081016040528092919081815260200182805460018160011615610100020316600290048015611d505780601f10611d2557610100808354040283529160200191611d50565b820191906000526020600020905b815481529060010190602001808311611d3357829003601f168201915b50505050509750600360008e81526020019081526020016000206005018054600181600116156101000203166002900480601f016020809104026020016040519081016040528092919081815260200182805460018160011615610100020316600290048015611e015780601f10611dd657610100808354040283529160200191611e01565b820191906000526020600020905b815481529060010190602001808311611de457829003601f168201915b50505050509650600360008e81526020019081526020016000206006018054600181600116156101000203166002900480601f016020809104026020016040519081016040528092919081815260200182805460018160011615610100020316600290048015611eb25780601f10611e8757610100808354040283529160200191611eb2565b820191906000526020600020905b815481529060010190602001808311611e9557829003601f168201915b50505050509550600360008e8152602001908152602001600020600701549450600360008e8152602001908152602001600020600801549350600360008e815260200190815260200160002060090160009054906101000a900473ffffffffffffffffffffffffffffffffffffffff169250600360008e8152602001908152602001600020600a018054600181600116156101000203166002900480601f016020809104026020016040519081016040528092919081815260200182805460018160011615610100020316600290048015611fce5780601f10611fa357610100808354040283529160200191611fce565b820191906000526020600020905b815481529060010190602001808311611fb157829003601f168201915b50505050509150600360008e8152602001908152602001600020600b018054600181600116156101000203166002900480601f01602080910402602001604051908101604052809291908181526020018280546001816001161561010002031660029004801561207f5780601f106120545761010080835404028352916020019161207f565b820191906000526020600020905b81548152906001019060200180831161206257829003601f168201915b505050505090508b8b8b8b8b8b8b8b8b8b8b8b9b509b509b509b509b509b509b509b509b509b509b509b5091939597999b5091939597999b565b600080426040516020016120cd9190613a54565b6040516020818303038152906040528051906020012060001c90506001819080600181540180825580915050600190039060005260206000200160009091909190915055336003600083815260200190815260200160002060000160006101000a81548173ffffffffffffffffffffffffffffffffffffffff021916908373ffffffffffffffffffffffffffffffffffffffff160217905550896003600083815260200190815260200160002060010181905550886003600083815260200190815260200160002060020181905550876003600083815260200190815260200160002060030190805190602001906121c6929190612c6d565b50866003600083815260200190815260200160002060040190805190602001906121f1929190612c6d565b508560036000838152602001908152602001600020600501908051906020019061221c929190612c6d565b5084600360008381526020019081526020016000206006019080519060200190612247929190612c6d565b508360036000838152602001908152602001600020600701819055508260036000838152602001908152602001600020600801819055506040518060400160405280600781526020017f437265617465640000000000000000000000000000000000000000000000000081525060036000838152602001908152602001600020600b0190805190602001906122dd929190612c6d565b50807fd5717c284e46061bdc0b3b75e5cb3645f34417cbd74ca53b845d2f967882afc660405160405180910390a2600191505098975050505050505050565b6001600080828254019250508190555033600260003373ffffffffffffffffffffffffffffffffffffffff1673ffffffffffffffffffffffffffffffffffffffff16815260200190815260200160002060010160006101000a81548173ffffffffffffffffffffffffffffffffffffffff021916908373ffffffffffffffffffffffffffffffffffffffff160217905550600054600260003373ffffffffffffffffffffffffffffffffffffffff1673ffffffffffffffffffffffffffffffffffffffff168152602001908152602001600020600001819055508a600260003373ffffffffffffffffffffffffffffffffffffffff1673ffffffffffffffffffffffffffffffffffffffff168152602001908152602001600020600201908051906020019061244c929190612c6d565b5089600260003373ffffffffffffffffffffffffffffffffffffffff1673ffffffffffffffffffffffffffffffffffffffff16815260200190815260200160002060030190805190602001906124a3929190612c6d565b5088600260003373ffffffffffffffffffffffffffffffffffffffff1673ffffffffffffffffffffffffffffffffffffffff1681526020019081526020016000206004018190555087600260003373ffffffffffffffffffffffffffffffffffffffff1673ffffffffffffffffffffffffffffffffffffffff1681526020019081526020016000206006016000600181526020019081526020016000206000019080519060200190612556929190612c6d565b5086600260003373ffffffffffffffffffffffffffffffffffffffff1673ffffffffffffffffffffffffffffffffffffffff1681526020019081526020016000206006016000600181526020019081526020016000206001018190555085600260003373ffffffffffffffffffffffffffffffffffffffff1673ffffffffffffffffffffffffffffffffffffffff168152602001908152602001600020600601600060028152602001908152602001600020600001908051906020019061261e929190612c6d565b5084600260003373ffffffffffffffffffffffffffffffffffffffff1673ffffffffffffffffffffffffffffffffffffffff1681526020019081526020016000206006016000600281526020019081526020016000206001018190555083600260003373ffffffffffffffffffffffffffffffffffffffff1673ffffffffffffffffffffffffffffffffffffffff16815260200190815260200160002060060160006003815260200190815260200160002060000190805190602001906126e6929190612c6d565b5082600260003373ffffffffffffffffffffffffffffffffffffffff1673ffffffffffffffffffffffffffffffffffffffff1681526020019081526020016000206006016000600381526020019081526020016000206001018190555081600260003373ffffffffffffffffffffffffffffffffffffffff1673ffffffffffffffffffffffffffffffffffffffff16815260200190815260200160002060060160006004815260200190815260200160002060000190805190602001906127ae929190612c6d565b5080600260003373ffffffffffffffffffffffffffffffffffffffff1673ffffffffffffffffffffffffffffffffffffffff168152602001908152602001600020600601600060048152602001908152602001600020600101819055506004600260003373ffffffffffffffffffffffffffffffffffffffff1673ffffffffffffffffffffffffffffffffffffffff168152602001908152602001600020600501819055505050505050505050505050565b600260008a73ffffffffffffffffffffffffffffffffffffffff1673ffffffffffffffffffffffffffffffffffffffff16815260200190815260200160002060010160009054906101000a900473ffffffffffffffffffffffffffffffffffffffff1673ffffffffffffffffffffffffffffffffffffffff163373ffffffffffffffffffffffffffffffffffffffff16146128fa57600080fd5b87600260003373ffffffffffffffffffffffffffffffffffffffff1673ffffffffffffffffffffffffffffffffffffffff1681526020019081526020016000206006016000600181526020019081526020016000206000019080519060200190612965929190612c6d565b5086600260003373ffffffffffffffffffffffffffffffffffffffff1673ffffffffffffffffffffffffffffffffffffffff1681526020019081526020016000206006016000600181526020019081526020016000206001018190555085600260003373ffffffffffffffffffffffffffffffffffffffff1673ffffffffffffffffffffffffffffffffffffffff1681526020019081526020016000206006016000600281526020019081526020016000206000019080519060200190612a2d929190612c6d565b5084600260003373ffffffffffffffffffffffffffffffffffffffff1673ffffffffffffffffffffffffffffffffffffffff1681526020019081526020016000206006016000600281526020019081526020016000206001018190555083600260003373ffffffffffffffffffffffffffffffffffffffff1673ffffffffffffffffffffffffffffffffffffffff1681526020019081526020016000206006016000600381526020019081526020016000206000019080519060200190612af5929190612c6d565b5082600260003373ffffffffffffffffffffffffffffffffffffffff1673ffffffffffffffffffffffffffffffffffffffff1681526020019081526020016000206006016000600381526020019081526020016000206001018190555081600260003373ffffffffffffffffffffffffffffffffffffffff1673ffffffffffffffffffffffffffffffffffffffff1681526020019081526020016000206006016000600481526020019081526020016000206000019080519060200190612bbd929190612c6d565b5080600260003373ffffffffffffffffffffffffffffffffffffffff1673ffffffffffffffffffffffffffffffffffffffff168152602001908152602001600020600601600060048152602001908152602001600020600101819055506004600260003373ffffffffffffffffffffffffffffffffffffffff1673ffffffffffffffffffffffffffffffffffffffff16815260200190815260200160002060050181905550505050505050505050565b828054600181600116156101000203166002900490600052602060002090601f016020900481019282601f10612cae57805160ff1916838001178555612cdc565b82800160010185558215612cdc579182015b82811115612cdb578251825591602001919060010190612cc0565b5b509050612ce99190612ced565b5090565b612d0f91905b80821115612d0b576000816000905550600101612cf3565b5090565b90565b600081359050612d2181613f98565b92915050565b600082601f830112612d3857600080fd5b8135612d4b612d4682613dfd565b613dd0565b91508082526020830160208301858383011115612d6757600080fd5b612d72838284613f3b565b50505092915050565b600081359050612d8a81613faf565b92915050565b600060208284031215612da257600080fd5b6000612db084828501612d12565b91505092915050565b60008060008060808587031215612dcf57600080fd5b6000612ddd87828801612d12565b945050602085013567ffffffffffffffff811115612dfa57600080fd5b612e0687828801612d27565b935050604085013567ffffffffffffffff811115612e2357600080fd5b612e2f87828801612d27565b9250506060612e4087828801612d7b565b91505092959194509250565b60008060008060008060008060006101208a8c031215612e6b57600080fd5b6000612e798c828d01612d12565b99505060208a013567ffffffffffffffff811115612e9657600080fd5b612ea28c828d01612d27565b9850506040612eb38c828d01612d7b565b97505060608a013567ffffffffffffffff811115612ed057600080fd5b612edc8c828d01612d27565b9650506080612eed8c828d01612d7b565b95505060a08a013567ffffffffffffffff811115612f0a57600080fd5b612f168c828d01612d27565b94505060c0612f278c828d01612d7b565b93505060e08a013567ffffffffffffffff811115612f4457600080fd5b612f508c828d01612d27565b925050610100612f628c828d01612d7b565b9150509295985092959850929598565b60008060008060008060008060008060006101608c8e031215612f9457600080fd5b60008c013567ffffffffffffffff811115612fae57600080fd5b612fba8e828f01612d27565b9b505060208c013567ffffffffffffffff811115612fd757600080fd5b612fe38e828f01612d27565b9a50506040612ff48e828f01612d7b565b99505060608c013567ffffffffffffffff81111561301157600080fd5b61301d8e828f01612d27565b985050608061302e8e828f01612d7b565b97505060a08c013567ffffffffffffffff81111561304b57600080fd5b6130578e828f01612d27565b96505060c06130688e828f01612d7b565b95505060e08c013567ffffffffffffffff81111561308557600080fd5b6130918e828f01612d27565b9450506101006130a38e828f01612d7b565b9350506101208c013567ffffffffffffffff8111156130c157600080fd5b6130cd8e828f01612d27565b9250506101406130df8e828f01612d7b565b9150509295989b509295989b9093969950565b60006020828403121561310457600080fd5b600061311284828501612d7b565b91505092915050565b6000806040838503121561312e57600080fd5b600061313c85828601612d7b565b925050602083013567ffffffffffffffff81111561315957600080fd5b61316585828601612d27565b9150509250929050565b600080600080600080600080610100898b03121561318c57600080fd5b600061319a8b828c01612d7b565b98505060206131ab8b828c01612d7b565b975050604089013567ffffffffffffffff8111156131c857600080fd5b6131d48b828c01612d27565b965050606089013567ffffffffffffffff8111156131f157600080fd5b6131fd8b828c01612d27565b955050608089013567ffffffffffffffff81111561321a57600080fd5b6132268b828c01612d27565b94505060a089013567ffffffffffffffff81111561324357600080fd5b61324f8b828c01612d27565b93505060c06132608b828c01612d7b565b92505060e06132718b828c01612d7b565b9150509295985092959890939650565b60008060006060848603121561329657600080fd5b60006132a486828701612d7b565b93505060206132b586828701612d7b565b92505060406132c686828701612d7b565b9150509250925092565b60008060008060008060008060006101208a8c0312156132ef57600080fd5b60006132fd8c828d01612d7b565b995050602061330e8c828d01612d7b565b985050604061331f8c828d01612d7b565b97505060608a013567ffffffffffffffff81111561333c57600080fd5b6133488c828d01612d27565b96505060808a013567ffffffffffffffff81111561336557600080fd5b6133718c828d01612d27565b95505060a08a013567ffffffffffffffff81111561338e57600080fd5b61339a8c828d01612d27565b94505060c08a013567ffffffffffffffff8111156133b757600080fd5b6133c38c828d01612d27565b93505060e06133d48c828d01612d7b565b9250506101006133e68c828d01612d7b565b9150509295985092959850929598565b6000613402838361354c565b905092915050565b6000613416838361399f565b60208301905092915050565b61342b81613ef3565b82525050565b600061343c82613e5e565b6134468185613ea4565b93508360208202850161345885613e29565b8060005b85811015613494578484038952815161347585826133f6565b945061348083613e8a565b925060208a0199505060018101905061345c565b50829750879550505050505092915050565b60006134b182613e69565b6134bb8185613eb5565b93506134c683613e39565b8060005b838110156134f75781516134de888261340a565b97506134e983613e97565b9250506001810190506134ca565b5085935050505092915050565b61350d81613f05565b82525050565b600061351e82613e7f565b6135288185613ed7565b9350613538818560208601613f4a565b61354181613f87565b840191505092915050565b600061355782613e74565b6135618185613ec6565b9350613571818560208601613f4a565b61357a81613f87565b840191505092915050565b6000815460018116600081146135a257600181146135c75761360b565b607f60028304166135b38187613ee8565b955060ff198316865280860193505061360b565b600282046135d58187613ee8565b95506135e085613e49565b60005b82811015613602578154818901526001820191506020810190506135e3565b82880195505050505b505092915050565b6000613620601a83613ed7565b91507f4f7264657220697320616c7265616479206163636570746564200000000000006000830152602082019050919050565b6000613660601883613ed7565b91507f5472616465206973206e6f7420656e646564207965742e2000000000000000006000830152602082019050919050565b60006136a0600583613ee8565b91507f436c6f73650000000000000000000000000000000000000000000000000000006000830152600582019050919050565b60006136e0602183613ed7565b91507f596f7520617265206e6f742063726561746f72206f662074686973206f72646560008301527f72000000000000000000000000000000000000000000000000000000000000006020830152604082019050919050565b6000613746600983613ee8565b91507f496e6974696174656400000000000000000000000000000000000000000000006000830152600982019050919050565b6000613786600883613ee8565b91507f41636365707465640000000000000000000000000000000000000000000000006000830152600882019050919050565b60006137c6600983613ee8565b91507f43616e63656c6c656400000000000000000000000000000000000000000000006000830152600982019050919050565b6000613806601a83613ed7565b91507f5472616465206973206e6f742073746172746564207965742e200000000000006000830152602082019050919050565b6000613846601a83613ed7565b91507f4f72646572206973206e6f742063726561746564207965742e200000000000006000830152602082019050919050565b6000613886602583613ed7565b91507f596f752068617665206e6f207065726d697373696f6e20746f2061636365737360008301527f20746869730000000000000000000000000000000000000000000000000000006020830152604082019050919050565b60006138ec601383613ed7565b91507f4f726465722069732043616e63656c6c656420000000000000000000000000006000830152602082019050919050565b600061392c600783613ee8565b91507f43726561746564000000000000000000000000000000000000000000000000006000830152600782019050919050565b600061396c601d83613ed7565b91507f596f75206172652063726561746f72206f662074686973206f726465720000006000830152602082019050919050565b6139a881613f31565b82525050565b6139b781613f31565b82525050565b6139ce6139c982613f31565b613f7d565b82525050565b60006139e08284613585565b915081905092915050565b60006139f682613693565b9150819050919050565b6000613a0b82613739565b9150819050919050565b6000613a2082613779565b9150819050919050565b6000613a35826137b9565b9150819050919050565b6000613a4a8261391f565b9150819050919050565b6000613a6082846139bd565b60208201915081905092915050565b600061018082019050613a85600083018f613422565b613a92602083018e6139ae565b613a9f604083018d6139ae565b8181036060830152613ab1818c613513565b90508181036080830152613ac5818b613513565b905081810360a0830152613ad9818a613513565b905081810360c0830152613aed8189613513565b9050613afc60e08301886139ae565b613b0a6101008301876139ae565b613b18610120830186613422565b818103610140830152613b2b8185613513565b9050818103610160830152613b408184613513565b90509d9c50505050505050505050505050565b60006020820190508181036000830152613b6d81846134a6565b905092915050565b6000602082019050613b8a6000830184613504565b92915050565b60006020820190508181036000830152613baa8184613513565b905092915050565b600060a0820190508181036000830152613bcc8188613513565b90508181036020830152613be08187613513565b9050613bef60408301866139ae565b8181036060830152613c018185613431565b90508181036080830152613c1581846134a6565b90509695505050505050565b6000610120820190508181036000830152613c3c818c613513565b9050613c4b602083018b6139ae565b613c58604083018a6139ae565b613c6560608301896139ae565b613c7260808301886139ae565b613c7f60a08301876139ae565b613c8c60c08301866139ae565b613c9960e08301856139ae565b613ca76101008301846139ae565b9a9950505050505050505050565b60006020820190508181036000830152613cce81613613565b9050919050565b60006020820190508181036000830152613cee81613653565b9050919050565b60006020820190508181036000830152613d0e816136d3565b9050919050565b60006020820190508181036000830152613d2e816137f9565b9050919050565b60006020820190508181036000830152613d4e81613839565b9050919050565b60006020820190508181036000830152613d6e81613879565b9050919050565b60006020820190508181036000830152613d8e816138df565b9050919050565b60006020820190508181036000830152613dae8161395f565b9050919050565b6000602082019050613dca60008301846139ae565b92915050565b6000604051905081810181811067ffffffffffffffff82111715613df357600080fd5b8060405250919050565b600067ffffffffffffffff821115613e1457600080fd5b601f19601f8301169050602081019050919050565b6000819050602082019050919050565b6000819050602082019050919050565b60008190508160005260206000209050919050565b600081519050919050565b600081519050919050565b600081519050919050565b600081519050919050565b6000602082019050919050565b6000602082019050919050565b600082825260208201905092915050565b600082825260208201905092915050565b600082825260208201905092915050565b600082825260208201905092915050565b600081905092915050565b6000613efe82613f11565b9050919050565b60008115159050919050565b600073ffffffffffffffffffffffffffffffffffffffff82169050919050565b6000819050919050565b82818337600083830152505050565b60005b83811015613f68578082015181840152602081019050613f4d565b83811115613f77576000848401525b50505050565b6000819050919050565b6000601f19601f8301169050919050565b613fa181613ef3565b8114613fac57600080fd5b50565b613fb881613f31565b8114613fc357600080fd5b5056fea26469706673582212202fa7daf626e4826156e867768b5d5d4aecd48042e2fca2fe35167e25732e1f1764736f6c63430006020033",
  "source": "// SPDX-License-Identifier: MIT\npragma experimental ABIEncoderV2;\npragma solidity ^0.6.2;\n\ncontract SustainImpact{\n    \n    uint private id = 0;\n    \n    struct HWInfo{\n        string deviceId;\n        uint meterId;\n    }\n    \n    struct Users{\n        uint userId;\n        address userAddress;\n        string username;\n        string url;\n        uint phoneNumber;\n        uint hwCount;\n        mapping (uint => HWInfo) hwInfo;\n    }\n    \n    struct Order{\n        address userAddress;\n        uint unit;\n        uint energy;\n        string timeFrom;\n        string timeTo;\n        string deviceId;\n        string location;\n        uint amountOfPower;\n        uint price;\n        address buyerAddress;\n        string buyerDeviceId;\n        string status;\n    }\n    \n    struct Trade{\n        string tradeStatus;\n        uint sellersMeterReading_S;\n        uint buyersMeterReading_S;\n        uint sellersMeterReading_E;\n        uint buyersMeterReading_E;\n        uint tradeStartTime;\n        uint tradeEndTime;\n        uint sellerFine;\n        uint buyerFine;\n    }\n    \n    uint[] public orderId;\n    \n    mapping (address => Users) users;\n    mapping (uint => Order) orders;\n    mapping (uint => Trade) trades;\n    \n    \n    event NewOrderId(uint indexed _orderId);\n    \n    constructor() public{\n        \n    }\n    \n    function createUser(string memory _username, string memory _url, uint _phoneNumber, string memory _deviceId1, uint _meterId1, string memory _deviceId2, uint _meterId2, string memory _deviceId3, uint _meterId3, string memory _deviceId4, uint _meterId4) public{\n       id += 1;\n       users[msg.sender].userAddress = msg.sender;\n       users[msg.sender].userId = id;\n       users[msg.sender].username = _username;\n       users[msg.sender].url = _url;\n       users[msg.sender].phoneNumber = _phoneNumber;\n       users[msg.sender].hwInfo[1].deviceId = _deviceId1;\n       users[msg.sender].hwInfo[1].meterId = _meterId1;\n       users[msg.sender].hwInfo[2].deviceId = _deviceId2;\n       users[msg.sender].hwInfo[2].meterId = _meterId2;\n       users[msg.sender].hwInfo[3].deviceId = _deviceId3;\n       users[msg.sender].hwInfo[3].meterId = _meterId3;\n       users[msg.sender].hwInfo[4].deviceId = _deviceId4;\n       users[msg.sender].hwInfo[4].meterId = _meterId4;\n       users[msg.sender].hwCount = 4;\n    }\n    \n    function updateUser(address _userAddress, string memory _username, string memory _url, uint _phoneNumber) public{\n       require(msg.sender == users[_userAddress].userAddress);\n       users[msg.sender].username = _username;\n       users[msg.sender].url = _url;\n       users[msg.sender].phoneNumber = _phoneNumber;\n    }\n    \n    function updateDevices(address _userAddress, string memory _deviceId1, uint _meterId1, string memory _deviceId2, uint _meterId2, string memory _deviceId3, uint _meterId3, string memory _deviceId4, uint _meterId4) public{\n       require(msg.sender == users[_userAddress].userAddress);\n       users[msg.sender].hwInfo[1].deviceId = _deviceId1;\n       users[msg.sender].hwInfo[1].meterId = _meterId1;\n       users[msg.sender].hwInfo[2].deviceId = _deviceId2;\n       users[msg.sender].hwInfo[2].meterId = _meterId2;\n       users[msg.sender].hwInfo[3].deviceId = _deviceId3;\n       users[msg.sender].hwInfo[3].meterId = _meterId3;\n       users[msg.sender].hwInfo[4].deviceId = _deviceId4;\n       users[msg.sender].hwInfo[4].meterId = _meterId4;\n       users[msg.sender].hwCount = 4;\n    }\n    \n    function getUser(address _userAddress) public view returns(string memory _username, string memory _url, uint _phoneNumber, string[] memory _deviceId, uint[] memory _meterId){\n        _deviceId = new string[](users[_userAddress].hwCount);\n        _meterId = new uint[](users[_userAddress].hwCount);\n        \n        _username = users[_userAddress].username;\n        _url = users[_userAddress].url;\n        _phoneNumber = users[_userAddress].phoneNumber;\n        uint index = 0;\n        for(uint i = 1; i <= users[_userAddress].hwCount; i++){\n            _deviceId[index] = users[_userAddress].hwInfo[i].deviceId;\n            _meterId[index] = users[_userAddress].hwInfo[i].meterId;\n            index++;\n        }\n        return (_username, _url, _phoneNumber, _deviceId, _meterId);\n    }\n    \n    function createOrder(uint _unit, uint _energy, string memory _timeFrom, string memory _timeTo, string memory _deviceId, string memory _location, uint _amountOfPower, uint _price) public returns(bool){\n        \n        uint _orderId = uint(keccak256(abi.encodePacked(now)));\n        orderId.push(_orderId);\n        orders[_orderId].userAddress = msg.sender;\n        orders[_orderId].unit = _unit;\n        orders[_orderId].energy = _energy;\n        orders[_orderId].timeFrom = _timeFrom;\n        orders[_orderId].timeTo = _timeTo;\n        orders[_orderId].deviceId = _deviceId;\n        orders[_orderId].location = _location;\n        orders[_orderId].amountOfPower = _amountOfPower;\n        orders[_orderId].price = _price;\n        orders[_orderId].status = \"Created\";\n        emit NewOrderId(_orderId);\n        return true;\n    }\n    \n    function getOrderId() public view returns(uint[] memory _orderId){\n        return orderId;\n    }\n    \n    function getOrder(uint _orderId) public view returns(address _userAddress, uint _unit, uint _energy, string memory _timeFrom, string memory _timeTo, string memory _deviceId, string memory _location, uint _amountOfPower, uint _price, address _buyerAddress, string memory _buyerDeviceId, string memory _status){\n        \n        _userAddress = orders[_orderId].userAddress;\n        _unit = orders[_orderId].unit;\n        _energy = orders[_orderId].energy;\n        _timeFrom = orders[_orderId].timeFrom;\n        _timeTo = orders[_orderId].timeTo;\n        _deviceId = orders[_orderId].deviceId;\n        _location = orders[_orderId].location;\n        _amountOfPower = orders[_orderId].amountOfPower;\n        _price = orders[_orderId].price;\n        _buyerAddress = orders[_orderId].buyerAddress;\n        _buyerDeviceId = orders[_orderId].buyerDeviceId;\n        _status = orders[_orderId].status;\n        \n        return (_userAddress, _unit, _energy, _timeFrom, _timeTo, _deviceId, _location, _amountOfPower, _price, _buyerAddress, _buyerDeviceId, _status);\n    }\n    \n    function updateOrder(uint _orderId, uint _unit, uint _energy, string memory _timeFrom, string memory _timeTo, string memory _deviceId, string memory _location, uint _amountOfPower, uint _price) public{\n        require(orders[_orderId].userAddress == msg.sender, \"You are not creator of this order\");\n        \n        orders[_orderId].userAddress = msg.sender;\n        orders[_orderId].unit = _unit;\n        orders[_orderId].energy = _energy;\n        orders[_orderId].timeFrom = _timeFrom;\n        orders[_orderId].timeTo = _timeTo;\n        orders[_orderId].deviceId = _deviceId;\n        orders[_orderId].location = _location;\n        orders[_orderId].amountOfPower = _amountOfPower;\n        orders[_orderId].price = _price;\n    }\n    \n    function acceptOrder(uint _orderId, string memory _buyerDeviceId) public returns(string memory ){\n        require(orders[_orderId].userAddress != msg.sender, \"You are creator of this order\");\n        require(keccak256(abi.encodePacked((orders[_orderId].status))) != keccak256(abi.encodePacked((\"Accepted\"))), \"Order is already accepted \");\n        require(keccak256(abi.encodePacked((orders[_orderId].status))) != keccak256(abi.encodePacked((\"Cancelled\"))), \"Order is Cancelled \");\n\n        string memory _msg = \"Order Accepted\";\n        orders[_orderId].buyerAddress = msg.sender;\n        orders[_orderId].buyerDeviceId = _buyerDeviceId;\n        orders[_orderId].status = \"Accepted\";\n        return _msg;\n    }\n    \n    function cancelOrder(uint _orderId) public returns(string memory){\n        require(orders[_orderId].userAddress == msg.sender, \"You are not creator of this order\");\n        \n        string memory _msg = \"Order Cancled\";\n        orders[_orderId].status = \"Cancelled\";\n        return _msg;\n    }\n    \n    function cancelContract(uint _orderId) public returns(string memory){\n        require(orders[_orderId].buyerAddress == msg.sender, \"You have no permission to access this\");\n        string memory _msg = \"Contract Cancelled\";\n        orders[_orderId].status = \"Created\";\n        orders[_orderId].buyerAddress = address(0);\n        orders[_orderId].buyerDeviceId = \"\";\n        return _msg;\n    }\n    \n    function deleteOrder(uint _orderId) public{\n        require(orders[_orderId].userAddress == msg.sender, \"You are not creator of this order\");\n        require(keccak256(abi.encodePacked((orders[_orderId].status))) != keccak256(abi.encodePacked((\"Created\"))), \"Order is already accepted \");\n        orders[_orderId].status = \"Deleted\";\n    }\n    \n    function startTrading(uint _orderId, uint _sellerMeterReading, uint _buyerMeterReading) public {\n        require(orders[_orderId].userAddress == msg.sender, \"You are not creator of this order\");\n        require(keccak256(abi.encodePacked((orders[_orderId].status))) == keccak256(abi.encodePacked((\"Accepted\"))), \"Order is not created yet. \");\n        \n        trades[_orderId].tradeStatus = \"Initiated\";\n        trades[_orderId].sellersMeterReading_S = _sellerMeterReading;\n        trades[_orderId].buyersMeterReading_S = _buyerMeterReading;\n        trades[_orderId].tradeStartTime = now;\n\n    }\n    \n    function endTrading(uint _orderId, uint _sellerMeterReading, uint _buyerMeterReading) public {\n        require(orders[_orderId].userAddress == msg.sender, \"You are not creator of this order\");\n        require(keccak256(abi.encodePacked((trades[_orderId].tradeStatus))) == keccak256(abi.encodePacked((\"Initiated\"))), \"Trade is not started yet. \");\n        \n        trades[_orderId].tradeStatus = \"Close\";\n        trades[_orderId].sellersMeterReading_E = _sellerMeterReading;\n        trades[_orderId].buyersMeterReading_E = _buyerMeterReading;\n        trades[_orderId].tradeEndTime = block.timestamp;\n    }\n    \n    function validateTrade(uint _orderId, uint _sellerFine, uint _buyerFine) public{\n        require(keccak256(abi.encodePacked((trades[_orderId].tradeStatus))) == keccak256(abi.encodePacked((\"Close\"))), \"Trade is not ended yet. \");\n\n        trades[_orderId].tradeStatus = \"Order Validated\";\n        trades[_orderId].sellerFine = _sellerFine;\n        trades[_orderId].buyerFine = _buyerFine;\n    }\n    \n    function getTradeDetails(uint _orderId) public view returns(string memory _tradeStatus, uint _sellerMeterReading_S, uint _buyerMeterReading_S, uint _sellerMeterReading_E, uint _buyerMeterReading_E, uint _tradeStart, uint _tradeEnd, uint _sellerFine, uint _buyerFine){\n        \n        _tradeStatus = trades[_orderId].tradeStatus;\n        _sellerMeterReading_S = trades[_orderId].sellersMeterReading_S;\n        _buyerMeterReading_S = trades[_orderId].buyersMeterReading_S;\n        _sellerMeterReading_E = trades[_orderId].sellersMeterReading_E;\n        _buyerMeterReading_E = trades[_orderId].buyersMeterReading_E;\n        _tradeStart = trades[_orderId].tradeStartTime;\n        _tradeEnd = trades[_orderId].tradeEndTime;\n        _sellerFine = trades[_orderId].sellerFine;\n        _buyerFine = trades[_orderId].buyerFine;\n        \n        return(_tradeStatus, _sellerMeterReading_S, _buyerMeterReading_S, _sellerMeterReading_E, _buyerMeterReading_E, _tradeStart, _tradeEnd, _sellerFine, _buyerFine);\n        \n    }\n}",
  "sourcePath": "/home/abc/Public/AliteProjects/Ethereum_Wallet1/Sustain Impact/contracts/SustainImpact.sol",
  "compiler": {
    "name": "solc",
    "version": "0.6.2+commit.bacdbe57.Emscripten.clang"
  },
  "schemaVersion": "3.2.4",
  "updatedAt": "2020-12-24T11:14:22.019Z",
  "devdoc": {
    "methods": {}
  },
  "userdoc": {
    "methods": {}
  }
}