{
  "contractName": "SustainImpact",
  "abi": [
    {
      "inputs": [],
      "stateMutability": "nonpayable",
      "type": "constructor"
    },
    {
      "anonymous": false,
      "inputs": [
        {
          "indexed": true,
          "internalType": "uint256",
          "name": "_orderId",
          "type": "uint256"
        }
      ],
      "name": "NewOrderId",
      "type": "event"
    },
    {
      "inputs": [
        {
          "internalType": "uint256",
          "name": "",
          "type": "uint256"
        }
      ],
      "name": "orderId",
      "outputs": [
        {
          "internalType": "uint256",
          "name": "",
          "type": "uint256"
        }
      ],
      "stateMutability": "view",
      "type": "function"
    },
    {
      "inputs": [
        {
          "internalType": "string",
          "name": "_username",
          "type": "string"
        },
        {
          "internalType": "string",
          "name": "_url",
          "type": "string"
        },
        {
          "internalType": "uint256",
          "name": "_phoneNumber",
          "type": "uint256"
        },
        {
          "internalType": "string",
          "name": "_deviceId1",
          "type": "string"
        },
        {
          "internalType": "uint256",
          "name": "_meterId1",
          "type": "uint256"
        },
        {
          "internalType": "string",
          "name": "_deviceId2",
          "type": "string"
        },
        {
          "internalType": "uint256",
          "name": "_meterId2",
          "type": "uint256"
        }
      ],
      "name": "createUser",
      "outputs": [],
      "stateMutability": "nonpayable",
      "type": "function"
    },
    {
      "inputs": [
        {
          "internalType": "address",
          "name": "_userAddress",
          "type": "address"
        },
        {
          "internalType": "string",
          "name": "_username",
          "type": "string"
        },
        {
          "internalType": "string",
          "name": "_url",
          "type": "string"
        },
        {
          "internalType": "uint256",
          "name": "_phoneNumber",
          "type": "uint256"
        },
        {
          "internalType": "string",
          "name": "_deviceId1",
          "type": "string"
        },
        {
          "internalType": "uint256",
          "name": "_meterId1",
          "type": "uint256"
        },
        {
          "internalType": "string",
          "name": "_deviceId2",
          "type": "string"
        },
        {
          "internalType": "uint256",
          "name": "_meterId2",
          "type": "uint256"
        }
      ],
      "name": "updateUser",
      "outputs": [],
      "stateMutability": "nonpayable",
      "type": "function"
    },
    {
      "inputs": [
        {
          "internalType": "address",
          "name": "_userAddress",
          "type": "address"
        }
      ],
      "name": "getUser",
      "outputs": [
        {
          "internalType": "string",
          "name": "_username",
          "type": "string"
        },
        {
          "internalType": "string",
          "name": "_url",
          "type": "string"
        },
        {
          "internalType": "uint256",
          "name": "_phoneNumber",
          "type": "uint256"
        },
        {
          "internalType": "string[]",
          "name": "_deviceId",
          "type": "string[]"
        },
        {
          "internalType": "uint256[]",
          "name": "_meterId",
          "type": "uint256[]"
        }
      ],
      "stateMutability": "view",
      "type": "function"
    },
    {
      "inputs": [
        {
          "internalType": "uint256",
          "name": "_unit",
          "type": "uint256"
        },
        {
          "internalType": "uint256",
          "name": "_energy",
          "type": "uint256"
        },
        {
          "internalType": "string",
          "name": "_timeFrom",
          "type": "string"
        },
        {
          "internalType": "string",
          "name": "_timeTo",
          "type": "string"
        },
        {
          "internalType": "string",
          "name": "_deviceId",
          "type": "string"
        },
        {
          "internalType": "string",
          "name": "_location",
          "type": "string"
        },
        {
          "internalType": "uint256",
          "name": "_amountOfPower",
          "type": "uint256"
        },
        {
          "internalType": "uint256",
          "name": "_price",
          "type": "uint256"
        }
      ],
      "name": "createOrder",
      "outputs": [
        {
          "internalType": "bool",
          "name": "",
          "type": "bool"
        }
      ],
      "stateMutability": "nonpayable",
      "type": "function"
    },
    {
      "inputs": [],
      "name": "getOrderId",
      "outputs": [
        {
          "internalType": "uint256[]",
          "name": "_orderId",
          "type": "uint256[]"
        }
      ],
      "stateMutability": "view",
      "type": "function"
    },
    {
      "inputs": [
        {
          "internalType": "uint256",
          "name": "_orderId",
          "type": "uint256"
        }
      ],
      "name": "getOrder",
      "outputs": [
        {
          "internalType": "address",
          "name": "_userAddress",
          "type": "address"
        },
        {
          "internalType": "uint256",
          "name": "_unit",
          "type": "uint256"
        },
        {
          "internalType": "uint256",
          "name": "_energy",
          "type": "uint256"
        },
        {
          "internalType": "string",
          "name": "_timeFrom",
          "type": "string"
        },
        {
          "internalType": "string",
          "name": "_timeTo",
          "type": "string"
        },
        {
          "internalType": "string",
          "name": "_deviceId",
          "type": "string"
        },
        {
          "internalType": "string",
          "name": "_location",
          "type": "string"
        },
        {
          "internalType": "uint256",
          "name": "_amountOfPower",
          "type": "uint256"
        },
        {
          "internalType": "uint256",
          "name": "_price",
          "type": "uint256"
        },
        {
          "internalType": "address",
          "name": "_buyerAddress",
          "type": "address"
        },
        {
          "internalType": "string",
          "name": "_buyerDeviceId",
          "type": "string"
        },
        {
          "internalType": "string",
          "name": "_status",
          "type": "string"
        }
      ],
      "stateMutability": "view",
      "type": "function"
    },
    {
      "inputs": [
        {
          "internalType": "uint256",
          "name": "_orderId",
          "type": "uint256"
        },
        {
          "internalType": "uint256",
          "name": "_unit",
          "type": "uint256"
        },
        {
          "internalType": "uint256",
          "name": "_energy",
          "type": "uint256"
        },
        {
          "internalType": "string",
          "name": "_timeFrom",
          "type": "string"
        },
        {
          "internalType": "string",
          "name": "_timeTo",
          "type": "string"
        },
        {
          "internalType": "string",
          "name": "_deviceId",
          "type": "string"
        },
        {
          "internalType": "string",
          "name": "_location",
          "type": "string"
        },
        {
          "internalType": "uint256",
          "name": "_amountOfPower",
          "type": "uint256"
        },
        {
          "internalType": "uint256",
          "name": "_price",
          "type": "uint256"
        }
      ],
      "name": "updateOrder",
      "outputs": [],
      "stateMutability": "nonpayable",
      "type": "function"
    },
    {
      "inputs": [
        {
          "internalType": "uint256",
          "name": "_orderId",
          "type": "uint256"
        },
        {
          "internalType": "string",
          "name": "_buyerDeviceId",
          "type": "string"
        }
      ],
      "name": "acceptOrder",
      "outputs": [
        {
          "internalType": "string",
          "name": "",
          "type": "string"
        }
      ],
      "stateMutability": "nonpayable",
      "type": "function"
    },
    {
      "inputs": [
        {
          "internalType": "uint256",
          "name": "_orderId",
          "type": "uint256"
        }
      ],
      "name": "cancleOrder",
      "outputs": [
        {
          "internalType": "string",
          "name": "",
          "type": "string"
        }
      ],
      "stateMutability": "nonpayable",
      "type": "function"
    },
    {
      "inputs": [
        {
          "internalType": "uint256",
          "name": "_orderId",
          "type": "uint256"
        }
      ],
      "name": "deleteOrder",
      "outputs": [],
      "stateMutability": "nonpayable",
      "type": "function"
    },
    {
      "inputs": [
        {
          "internalType": "uint256",
          "name": "_orderId",
          "type": "uint256"
        },
        {
          "internalType": "uint256",
          "name": "_sellerMeterReading",
          "type": "uint256"
        },
        {
          "internalType": "uint256",
          "name": "_buyerMeterReading",
          "type": "uint256"
        }
      ],
      "name": "startTrading",
      "outputs": [],
      "stateMutability": "nonpayable",
      "type": "function"
    },
    {
      "inputs": [
        {
          "internalType": "uint256",
          "name": "_orderId",
          "type": "uint256"
        },
        {
          "internalType": "uint256",
          "name": "_sellerMeterReading",
          "type": "uint256"
        },
        {
          "internalType": "uint256",
          "name": "_buyerMeterReading",
          "type": "uint256"
        }
      ],
      "name": "endTrading",
      "outputs": [],
      "stateMutability": "nonpayable",
      "type": "function"
    },
    {
      "inputs": [
        {
          "internalType": "uint256",
          "name": "_orderId",
          "type": "uint256"
        },
        {
          "internalType": "uint256",
          "name": "_sellerFine",
          "type": "uint256"
        },
        {
          "internalType": "uint256",
          "name": "_buyerFine",
          "type": "uint256"
        }
      ],
      "name": "validateTrade",
      "outputs": [],
      "stateMutability": "nonpayable",
      "type": "function"
    },
    {
      "inputs": [
        {
          "internalType": "uint256",
          "name": "_orderId",
          "type": "uint256"
        }
      ],
      "name": "getTradeDetails",
      "outputs": [
        {
          "internalType": "string",
          "name": "_tradeStatus",
          "type": "string"
        },
        {
          "internalType": "uint256",
          "name": "_sellerMeterReading_S",
          "type": "uint256"
        },
        {
          "internalType": "uint256",
          "name": "_buyerMeterReading_S",
          "type": "uint256"
        },
        {
          "internalType": "uint256",
          "name": "_sellerMeterReading_E",
          "type": "uint256"
        },
        {
          "internalType": "uint256",
          "name": "_buyerMeterReading_E",
          "type": "uint256"
        },
        {
          "internalType": "uint256",
          "name": "_tradeStart",
          "type": "uint256"
        },
        {
          "internalType": "uint256",
          "name": "_tradeEnd",
          "type": "uint256"
        },
        {
          "internalType": "uint256",
          "name": "_sellerFine",
          "type": "uint256"
        },
        {
          "internalType": "uint256",
          "name": "_buyerFine",
          "type": "uint256"
        }
      ],
      "stateMutability": "view",
      "type": "function"
    }
  ],
  "bytecode": "0x60806040526000805534801561001457600080fd5b5061384b806100246000396000f3fe608060405234801561001057600080fd5b50600436106100f55760003560e01c80636f77926b11610097578063d09ef24111610066578063d09ef2411461028c578063d363a820146102c7578063d45c1dfd146102e3578063f406cb8a14610313576100f5565b80636f77926b146101ee578063707fb79e14610222578063a849642614610252578063c746f51d14610270576100f5565b806311a00327116100d357806311a003271461014e5780632d7e8a591461016a57806364a8cce914610186578063695730a5146101b6576100f5565b8063014c6966146100fa5780630ab7529e146101165780630bfe16f914610132575b600080fd5b610114600480360361010f9190810190612b56565b610343565b005b610130600480360361012b9190810190612ba5565b61053e565b005b61014c60048036036101479190810190612b56565b61075a565b005b610168600480360361016391908101906129c7565b610955565b005b610184600480360361017f91908101906128c9565b610afe565b005b6101a0600480360361019b91908101906129f0565b610ead565b6040516101ad91906133ff565b60405180910390f35b6101d060048036036101cb91908101906129c7565b6111bc565b6040516101e599989796959493929190613490565b60405180910390f35b6102086004803603610203919081019061278e565b61136b565b604051610219959493929190613421565b60405180910390f35b61023c600480360361023791908101906129c7565b611858565b6040516102499190613604565b60405180910390f35b61025a611879565b60405161026791906133c2565b60405180910390f35b61028a60048036036102859190810190612b56565b6118d1565b005b6102a660048036036102a191908101906129c7565b611a0d565b6040516102be9c9b9a999897969594939291906132de565b60405180910390f35b6102e160048036036102dc91908101906127b7565b611f4f565b005b6102fd60048036036102f89190810190612a44565b6122bf565b60405161030a91906133e4565b60405180910390f35b61032d600480360361032891908101906129c7565b612522565b60405161033a91906133ff565b60405180910390f35b3373ffffffffffffffffffffffffffffffffffffffff166003600085815260200190815260200160002060000160009054906101000a900473ffffffffffffffffffffffffffffffffffffffff1673ffffffffffffffffffffffffffffffffffffffff16146103e7576040517f08c379a00000000000000000000000000000000000000000000000000000000081526004016103de90613584565b60405180910390fd5b6040516020016103f690613284565b6040516020818303038152906040528051906020012060036000858152602001908152602001600020600b016040516020016104329190613243565b6040516020818303038152906040528051906020012014610488576040517f08c379a000000000000000000000000000000000000000000000000000000000815260040161047f906135c4565b60405180910390fd5b6040518060400160405280600981526020017f496e6974696174656400000000000000000000000000000000000000000000008152506004600085815260200190815260200160002060000190805190602001906104e792919061266b565b50816004600085815260200190815260200160002060010181905550806004600085815260200190815260200160002060020181905550426004600085815260200190815260200160002060050181905550505050565b3373ffffffffffffffffffffffffffffffffffffffff16600360008b815260200190815260200160002060000160009054906101000a900473ffffffffffffffffffffffffffffffffffffffff1673ffffffffffffffffffffffffffffffffffffffff16146105e2576040517f08c379a00000000000000000000000000000000000000000000000000000000081526004016105d990613584565b60405180910390fd5b33600360008b815260200190815260200160002060000160006101000a81548173ffffffffffffffffffffffffffffffffffffffff021916908373ffffffffffffffffffffffffffffffffffffffff16021790555087600360008b81526020019081526020016000206001018190555086600360008b81526020019081526020016000206002018190555085600360008b8152602001908152602001600020600301908051906020019061069792919061266b565b5084600360008b815260200190815260200160002060040190805190602001906106c292919061266b565b5083600360008b815260200190815260200160002060050190805190602001906106ed92919061266b565b5082600360008b8152602001908152602001600020600601908051906020019061071892919061266b565b5081600360008b81526020019081526020016000206007018190555080600360008b815260200190815260200160002060080181905550505050505050505050565b3373ffffffffffffffffffffffffffffffffffffffff166003600085815260200190815260200160002060000160009054906101000a900473ffffffffffffffffffffffffffffffffffffffff1673ffffffffffffffffffffffffffffffffffffffff16146107fe576040517f08c379a00000000000000000000000000000000000000000000000000000000081526004016107f590613584565b60405180910390fd5b60405160200161080d9061326f565b60405160208183030381529060405280519060200120600460008581526020019081526020016000206000016040516020016108499190613243565b604051602081830303815290604052805190602001201461089f576040517f08c379a0000000000000000000000000000000000000000000000000000000008152600401610896906135a4565b60405180910390fd5b6040518060400160405280600581526020017f436c6f73650000000000000000000000000000000000000000000000000000008152506004600085815260200190815260200160002060000190805190602001906108fe92919061266b565b50816004600085815260200190815260200160002060030181905550806004600085815260200190815260200160002060040181905550426004600085815260200190815260200160002060060181905550505050565b3373ffffffffffffffffffffffffffffffffffffffff166003600083815260200190815260200160002060000160009054906101000a900473ffffffffffffffffffffffffffffffffffffffff1673ffffffffffffffffffffffffffffffffffffffff16146109f9576040517f08c379a00000000000000000000000000000000000000000000000000000000081526004016109f090613584565b60405180910390fd5b604051602001610a0890613299565b6040516020818303038152906040528051906020012060036000838152602001908152602001600020600b01604051602001610a449190613243565b604051602081830303815290604052805190602001201415610a9b576040517f08c379a0000000000000000000000000000000000000000000000000000000008152600401610a9290613524565b60405180910390fd5b6040518060400160405280600781526020017f44656c657465640000000000000000000000000000000000000000000000000081525060036000838152602001908152602001600020600b019080519060200190610afa92919061266b565b5050565b6001600080828254019250508190555033600260003373ffffffffffffffffffffffffffffffffffffffff1673ffffffffffffffffffffffffffffffffffffffff16815260200190815260200160002060010160006101000a81548173ffffffffffffffffffffffffffffffffffffffff021916908373ffffffffffffffffffffffffffffffffffffffff160217905550600054600260003373ffffffffffffffffffffffffffffffffffffffff1673ffffffffffffffffffffffffffffffffffffffff1681526020019081526020016000206000018190555086600260003373ffffffffffffffffffffffffffffffffffffffff1673ffffffffffffffffffffffffffffffffffffffff1681526020019081526020016000206002019080519060200190610c2e92919061266b565b5085600260003373ffffffffffffffffffffffffffffffffffffffff1673ffffffffffffffffffffffffffffffffffffffff1681526020019081526020016000206003019080519060200190610c8592919061266b565b5084600260003373ffffffffffffffffffffffffffffffffffffffff1673ffffffffffffffffffffffffffffffffffffffff1681526020019081526020016000206004018190555083600260003373ffffffffffffffffffffffffffffffffffffffff1673ffffffffffffffffffffffffffffffffffffffff1681526020019081526020016000206006016000600181526020019081526020016000206000019080519060200190610d3892919061266b565b5082600260003373ffffffffffffffffffffffffffffffffffffffff1673ffffffffffffffffffffffffffffffffffffffff1681526020019081526020016000206006016000600181526020019081526020016000206001018190555081600260003373ffffffffffffffffffffffffffffffffffffffff1673ffffffffffffffffffffffffffffffffffffffff1681526020019081526020016000206006016000600281526020019081526020016000206000019080519060200190610e0092919061266b565b5080600260003373ffffffffffffffffffffffffffffffffffffffff1673ffffffffffffffffffffffffffffffffffffffff1681526020019081526020016000206006016000600281526020019081526020016000206001018190555060028060003373ffffffffffffffffffffffffffffffffffffffff1673ffffffffffffffffffffffffffffffffffffffff1681526020019081526020016000206005018190555050505050505050565b60603373ffffffffffffffffffffffffffffffffffffffff166003600085815260200190815260200160002060000160009054906101000a900473ffffffffffffffffffffffffffffffffffffffff1673ffffffffffffffffffffffffffffffffffffffff161415610f54576040517f08c379a0000000000000000000000000000000000000000000000000000000008152600401610f4b906135e4565b60405180910390fd5b604051602001610f6390613284565b6040516020818303038152906040528051906020012060036000858152602001908152602001600020600b01604051602001610f9f9190613243565b604051602081830303815290604052805190602001201415610ff6576040517f08c379a0000000000000000000000000000000000000000000000000000000008152600401610fed90613524565b60405180910390fd5b604051602001611005906132ae565b6040516020818303038152906040528051906020012060036000858152602001908152602001600020600b016040516020016110419190613243565b604051602081830303815290604052805190602001201415611098576040517f08c379a000000000000000000000000000000000000000000000000000000000815260040161108f90613564565b60405180910390fd5b60606040518060400160405280600e81526020017f4f726465722041636365707465640000000000000000000000000000000000008152509050336003600086815260200190815260200160002060090160006101000a81548173ffffffffffffffffffffffffffffffffffffffff021916908373ffffffffffffffffffffffffffffffffffffffff1602179055508260036000868152602001908152602001600020600a01908051906020019061115192919061266b565b506040518060400160405280600881526020017f416363657074656400000000000000000000000000000000000000000000000081525060036000868152602001908152602001600020600b0190805190602001906111b192919061266b565b508091505092915050565b6060600080600080600080600080600460008b81526020019081526020016000206000018054600181600116156101000203166002900480601f0160208091040260200160405190810160405280929190818152602001828054600181600116156101000203166002900480156112745780601f1061124957610100808354040283529160200191611274565b820191906000526020600020905b81548152906001019060200180831161125757829003601f168201915b50505050509850600460008b8152602001908152602001600020600101549750600460008b8152602001908152602001600020600201549650600460008b8152602001908152602001600020600301549550600460008b8152602001908152602001600020600401549450600460008b8152602001908152602001600020600501549350600460008b8152602001908152602001600020600601549250600460008b8152602001908152602001600020600701549150600460008b81526020019081526020016000206008015490508888888888888888889850985098509850985098509850985098509193959799909294969850565b6060806000606080600260008773ffffffffffffffffffffffffffffffffffffffff1673ffffffffffffffffffffffffffffffffffffffff168152602001908152602001600020600501546040519080825280602002602001820160405280156113e957816020015b60608152602001906001900390816113d45790505b509150600260008773ffffffffffffffffffffffffffffffffffffffff1673ffffffffffffffffffffffffffffffffffffffff1681526020019081526020016000206005015460405190808252806020026020018201604052801561145d5781602001602082028038833980820191505090505b509050600260008773ffffffffffffffffffffffffffffffffffffffff1673ffffffffffffffffffffffffffffffffffffffff1681526020019081526020016000206002018054600181600116156101000203166002900480601f0160208091040260200160405190810160405280929190818152602001828054600181600116156101000203166002900480156115365780601f1061150b57610100808354040283529160200191611536565b820191906000526020600020905b81548152906001019060200180831161151957829003601f168201915b50505050509450600260008773ffffffffffffffffffffffffffffffffffffffff1673ffffffffffffffffffffffffffffffffffffffff1681526020019081526020016000206003018054600181600116156101000203166002900480601f0160208091040260200160405190810160405280929190818152602001828054600181600116156101000203166002900480156116135780601f106115e857610100808354040283529160200191611613565b820191906000526020600020905b8154815290600101906020018083116115f657829003601f168201915b50505050509350600260008773ffffffffffffffffffffffffffffffffffffffff1673ffffffffffffffffffffffffffffffffffffffff16815260200190815260200160002060040154925060008090506000600190505b600260008973ffffffffffffffffffffffffffffffffffffffff1673ffffffffffffffffffffffffffffffffffffffff16815260200190815260200160002060050154811161183e57600260008973ffffffffffffffffffffffffffffffffffffffff1673ffffffffffffffffffffffffffffffffffffffff16815260200190815260200160002060060160008281526020019081526020016000206000018054600181600116156101000203166002900480601f01602080910402602001604051908101604052809291908181526020018280546001816001161561010002031660029004801561179e5780601f106117735761010080835404028352916020019161179e565b820191906000526020600020905b81548152906001019060200180831161178157829003601f168201915b50505050508483815181106117af57fe5b6020026020010181905250600260008973ffffffffffffffffffffffffffffffffffffffff1673ffffffffffffffffffffffffffffffffffffffff16815260200190815260200160002060060160008281526020019081526020016000206001015483838151811061181d57fe5b6020026020010181815250508180600101925050808060010191505061166b565b508585858585955095509550955095505091939590929450565b6001818154811061186557fe5b906000526020600020016000915090505481565b606060018054806020026020016040519081016040528092919081815260200182805480156118c757602002820191906000526020600020905b8154815260200190600101908083116118b3575b5050505050905090565b6040516020016118e09061325a565b604051602081830303815290604052805190602001206004600085815260200190815260200160002060000160405160200161191c9190613243565b6040516020818303038152906040528051906020012014611972576040517f08c379a000000000000000000000000000000000000000000000000000000000815260040161196990613544565b60405180910390fd5b6040518060400160405280600f81526020017f4f726465722056616c69646174656400000000000000000000000000000000008152506004600085815260200190815260200160002060000190805190602001906119d192919061266b565b50816004600085815260200190815260200160002060070181905550806004600085815260200190815260200160002060080181905550505050565b60008060006060806060806000806000606080600360008e815260200190815260200160002060000160009054906101000a900473ffffffffffffffffffffffffffffffffffffffff169b50600360008e8152602001908152602001600020600101549a50600360008e8152602001908152602001600020600201549950600360008e81526020019081526020016000206003018054600181600116156101000203166002900480601f016020809104026020016040519081016040528092919081815260200182805460018160011615610100020316600290048015611b355780601f10611b0a57610100808354040283529160200191611b35565b820191906000526020600020905b815481529060010190602001808311611b1857829003601f168201915b50505050509850600360008e81526020019081526020016000206004018054600181600116156101000203166002900480601f016020809104026020016040519081016040528092919081815260200182805460018160011615610100020316600290048015611be65780601f10611bbb57610100808354040283529160200191611be6565b820191906000526020600020905b815481529060010190602001808311611bc957829003601f168201915b50505050509750600360008e81526020019081526020016000206005018054600181600116156101000203166002900480601f016020809104026020016040519081016040528092919081815260200182805460018160011615610100020316600290048015611c975780601f10611c6c57610100808354040283529160200191611c97565b820191906000526020600020905b815481529060010190602001808311611c7a57829003601f168201915b50505050509650600360008e81526020019081526020016000206006018054600181600116156101000203166002900480601f016020809104026020016040519081016040528092919081815260200182805460018160011615610100020316600290048015611d485780601f10611d1d57610100808354040283529160200191611d48565b820191906000526020600020905b815481529060010190602001808311611d2b57829003601f168201915b50505050509550600360008e8152602001908152602001600020600701549450600360008e8152602001908152602001600020600801549350600360008e815260200190815260200160002060090160009054906101000a900473ffffffffffffffffffffffffffffffffffffffff169250600360008e8152602001908152602001600020600a018054600181600116156101000203166002900480601f016020809104026020016040519081016040528092919081815260200182805460018160011615610100020316600290048015611e645780601f10611e3957610100808354040283529160200191611e64565b820191906000526020600020905b815481529060010190602001808311611e4757829003601f168201915b50505050509150600360008e8152602001908152602001600020600b018054600181600116156101000203166002900480601f016020809104026020016040519081016040528092919081815260200182805460018160011615610100020316600290048015611f155780601f10611eea57610100808354040283529160200191611f15565b820191906000526020600020905b815481529060010190602001808311611ef857829003601f168201915b505050505090508b8b8b8b8b8b8b8b8b8b8b8b9b509b509b509b509b509b509b509b509b509b509b509b5091939597999b5091939597999b565b600260008973ffffffffffffffffffffffffffffffffffffffff1673ffffffffffffffffffffffffffffffffffffffff16815260200190815260200160002060010160009054906101000a900473ffffffffffffffffffffffffffffffffffffffff1673ffffffffffffffffffffffffffffffffffffffff163373ffffffffffffffffffffffffffffffffffffffff1614611fe957600080fd5b86600260003373ffffffffffffffffffffffffffffffffffffffff1673ffffffffffffffffffffffffffffffffffffffff168152602001908152602001600020600201908051906020019061203f92919061266b565b5085600260003373ffffffffffffffffffffffffffffffffffffffff1673ffffffffffffffffffffffffffffffffffffffff168152602001908152602001600020600301908051906020019061209692919061266b565b5084600260003373ffffffffffffffffffffffffffffffffffffffff1673ffffffffffffffffffffffffffffffffffffffff1681526020019081526020016000206004018190555083600260003373ffffffffffffffffffffffffffffffffffffffff1673ffffffffffffffffffffffffffffffffffffffff168152602001908152602001600020600601600060018152602001908152602001600020600001908051906020019061214992919061266b565b5082600260003373ffffffffffffffffffffffffffffffffffffffff1673ffffffffffffffffffffffffffffffffffffffff1681526020019081526020016000206006016000600181526020019081526020016000206001018190555081600260003373ffffffffffffffffffffffffffffffffffffffff1673ffffffffffffffffffffffffffffffffffffffff168152602001908152602001600020600601600060028152602001908152602001600020600001908051906020019061221192919061266b565b5080600260003373ffffffffffffffffffffffffffffffffffffffff1673ffffffffffffffffffffffffffffffffffffffff1681526020019081526020016000206006016000600281526020019081526020016000206001018190555060028060003373ffffffffffffffffffffffffffffffffffffffff1673ffffffffffffffffffffffffffffffffffffffff168152602001908152602001600020600501819055505050505050505050565b600080426040516020016122d391906132c3565b6040516020818303038152906040528051906020012060001c90506001819080600181540180825580915050600190039060005260206000200160009091909190915055336003600083815260200190815260200160002060000160006101000a81548173ffffffffffffffffffffffffffffffffffffffff021916908373ffffffffffffffffffffffffffffffffffffffff160217905550896003600083815260200190815260200160002060010181905550886003600083815260200190815260200160002060020181905550876003600083815260200190815260200160002060030190805190602001906123cc92919061266b565b50866003600083815260200190815260200160002060040190805190602001906123f792919061266b565b508560036000838152602001908152602001600020600501908051906020019061242292919061266b565b508460036000838152602001908152602001600020600601908051906020019061244d92919061266b565b508360036000838152602001908152602001600020600701819055508260036000838152602001908152602001600020600801819055506040518060400160405280600781526020017f437265617465640000000000000000000000000000000000000000000000000081525060036000838152602001908152602001600020600b0190805190602001906124e392919061266b565b50807fd5717c284e46061bdc0b3b75e5cb3645f34417cbd74ca53b845d2f967882afc660405160405180910390a2600191505098975050505050505050565b60603373ffffffffffffffffffffffffffffffffffffffff166003600084815260200190815260200160002060000160009054906101000a900473ffffffffffffffffffffffffffffffffffffffff1673ffffffffffffffffffffffffffffffffffffffff16146125c8576040517f08c379a00000000000000000000000000000000000000000000000000000000081526004016125bf90613584565b60405180910390fd5b60606040518060400160405280600d81526020017f4f726465722043616e636c65640000000000000000000000000000000000000081525090506040518060400160405280600781526020017f43616e636c65640000000000000000000000000000000000000000000000000081525060036000858152602001908152602001600020600b01908051906020019061266192919061266b565b5080915050919050565b828054600181600116156101000203166002900490600052602060002090601f016020900481019282601f106126ac57805160ff19168380011785556126da565b828001600101855582156126da579182015b828111156126d95782518255916020019190600101906126be565b5b5090506126e791906126eb565b5090565b61270d91905b808211156127095760008160009055506001016126f1565b5090565b90565b60008135905061271f816137e7565b92915050565b600082601f83011261273657600080fd5b81356127496127448261364c565b61361f565b9150808252602083016020830185838301111561276557600080fd5b61277083828461378a565b50505092915050565b600081359050612788816137fe565b92915050565b6000602082840312156127a057600080fd5b60006127ae84828501612710565b91505092915050565b600080600080600080600080610100898b0312156127d457600080fd5b60006127e28b828c01612710565b985050602089013567ffffffffffffffff8111156127ff57600080fd5b61280b8b828c01612725565b975050604089013567ffffffffffffffff81111561282857600080fd5b6128348b828c01612725565b96505060606128458b828c01612779565b955050608089013567ffffffffffffffff81111561286257600080fd5b61286e8b828c01612725565b94505060a061287f8b828c01612779565b93505060c089013567ffffffffffffffff81111561289c57600080fd5b6128a88b828c01612725565b92505060e06128b98b828c01612779565b9150509295985092959890939650565b600080600080600080600060e0888a0312156128e457600080fd5b600088013567ffffffffffffffff8111156128fe57600080fd5b61290a8a828b01612725565b975050602088013567ffffffffffffffff81111561292757600080fd5b6129338a828b01612725565b96505060406129448a828b01612779565b955050606088013567ffffffffffffffff81111561296157600080fd5b61296d8a828b01612725565b945050608061297e8a828b01612779565b93505060a088013567ffffffffffffffff81111561299b57600080fd5b6129a78a828b01612725565b92505060c06129b88a828b01612779565b91505092959891949750929550565b6000602082840312156129d957600080fd5b60006129e784828501612779565b91505092915050565b60008060408385031215612a0357600080fd5b6000612a1185828601612779565b925050602083013567ffffffffffffffff811115612a2e57600080fd5b612a3a85828601612725565b9150509250929050565b600080600080600080600080610100898b031215612a6157600080fd5b6000612a6f8b828c01612779565b9850506020612a808b828c01612779565b975050604089013567ffffffffffffffff811115612a9d57600080fd5b612aa98b828c01612725565b965050606089013567ffffffffffffffff811115612ac657600080fd5b612ad28b828c01612725565b955050608089013567ffffffffffffffff811115612aef57600080fd5b612afb8b828c01612725565b94505060a089013567ffffffffffffffff811115612b1857600080fd5b612b248b828c01612725565b93505060c0612b358b828c01612779565b92505060e0612b468b828c01612779565b9150509295985092959890939650565b600080600060608486031215612b6b57600080fd5b6000612b7986828701612779565b9350506020612b8a86828701612779565b9250506040612b9b86828701612779565b9150509250925092565b60008060008060008060008060006101208a8c031215612bc457600080fd5b6000612bd28c828d01612779565b9950506020612be38c828d01612779565b9850506040612bf48c828d01612779565b97505060608a013567ffffffffffffffff811115612c1157600080fd5b612c1d8c828d01612725565b96505060808a013567ffffffffffffffff811115612c3a57600080fd5b612c468c828d01612725565b95505060a08a013567ffffffffffffffff811115612c6357600080fd5b612c6f8c828d01612725565b94505060c08a013567ffffffffffffffff811115612c8c57600080fd5b612c988c828d01612725565b93505060e0612ca98c828d01612779565b925050610100612cbb8c828d01612779565b9150509295985092959850929598565b6000612cd78383612e21565b905092915050565b6000612ceb838361320e565b60208301905092915050565b612d0081613742565b82525050565b6000612d11826136ad565b612d1b81856136f3565b935083602082028501612d2d85613678565b8060005b85811015612d695784840389528151612d4a8582612ccb565b9450612d55836136d9565b925060208a01995050600181019050612d31565b50829750879550505050505092915050565b6000612d86826136b8565b612d908185613704565b9350612d9b83613688565b8060005b83811015612dcc578151612db38882612cdf565b9750612dbe836136e6565b925050600181019050612d9f565b5085935050505092915050565b612de281613754565b82525050565b6000612df3826136ce565b612dfd8185613726565b9350612e0d818560208601613799565b612e16816137d6565b840191505092915050565b6000612e2c826136c3565b612e368185613715565b9350612e46818560208601613799565b612e4f816137d6565b840191505092915050565b600081546001811660008114612e775760018114612e9c57612ee0565b607f6002830416612e888187613737565b955060ff1983168652808601935050612ee0565b60028204612eaa8187613737565b9550612eb585613698565b60005b82811015612ed757815481890152600182019150602081019050612eb8565b82880195505050505b505092915050565b6000612ef5601a83613726565b91507f4f7264657220697320616c7265616479206163636570746564200000000000006000830152602082019050919050565b6000612f35601883613726565b91507f5472616465206973206e6f7420656e646564207965742e2000000000000000006000830152602082019050919050565b6000612f75601183613726565b91507f4f726465722069732043616e636c6564200000000000000000000000000000006000830152602082019050919050565b6000612fb5600583613737565b91507f436c6f73650000000000000000000000000000000000000000000000000000006000830152600582019050919050565b6000612ff5602183613726565b91507f596f7520617265206e6f742063726561746f72206f662074686973206f72646560008301527f72000000000000000000000000000000000000000000000000000000000000006020830152604082019050919050565b600061305b600983613737565b91507f496e6974696174656400000000000000000000000000000000000000000000006000830152600982019050919050565b600061309b600883613737565b91507f41636365707465640000000000000000000000000000000000000000000000006000830152600882019050919050565b60006130db601a83613726565b91507f5472616465206973206e6f742073746172746564207965742e200000000000006000830152602082019050919050565b600061311b601a83613726565b91507f4f72646572206973206e6f742063726561746564207965742e200000000000006000830152602082019050919050565b600061315b600783613737565b91507f43726561746564000000000000000000000000000000000000000000000000006000830152600782019050919050565b600061319b601d83613726565b91507f596f75206172652063726561746f72206f662074686973206f726465720000006000830152602082019050919050565b60006131db600783613737565b91507f43616e636c6564000000000000000000000000000000000000000000000000006000830152600782019050919050565b61321781613780565b82525050565b61322681613780565b82525050565b61323d61323882613780565b6137cc565b82525050565b600061324f8284612e5a565b915081905092915050565b600061326582612fa8565b9150819050919050565b600061327a8261304e565b9150819050919050565b600061328f8261308e565b9150819050919050565b60006132a48261314e565b9150819050919050565b60006132b9826131ce565b9150819050919050565b60006132cf828461322c565b60208201915081905092915050565b6000610180820190506132f4600083018f612cf7565b613301602083018e61321d565b61330e604083018d61321d565b8181036060830152613320818c612de8565b90508181036080830152613334818b612de8565b905081810360a0830152613348818a612de8565b905081810360c083015261335c8189612de8565b905061336b60e083018861321d565b61337961010083018761321d565b613387610120830186612cf7565b81810361014083015261339a8185612de8565b90508181036101608301526133af8184612de8565b90509d9c50505050505050505050505050565b600060208201905081810360008301526133dc8184612d7b565b905092915050565b60006020820190506133f96000830184612dd9565b92915050565b600060208201905081810360008301526134198184612de8565b905092915050565b600060a082019050818103600083015261343b8188612de8565b9050818103602083015261344f8187612de8565b905061345e604083018661321d565b81810360608301526134708185612d06565b905081810360808301526134848184612d7b565b90509695505050505050565b60006101208201905081810360008301526134ab818c612de8565b90506134ba602083018b61321d565b6134c7604083018a61321d565b6134d4606083018961321d565b6134e1608083018861321d565b6134ee60a083018761321d565b6134fb60c083018661321d565b61350860e083018561321d565b61351661010083018461321d565b9a9950505050505050505050565b6000602082019050818103600083015261353d81612ee8565b9050919050565b6000602082019050818103600083015261355d81612f28565b9050919050565b6000602082019050818103600083015261357d81612f68565b9050919050565b6000602082019050818103600083015261359d81612fe8565b9050919050565b600060208201905081810360008301526135bd816130ce565b9050919050565b600060208201905081810360008301526135dd8161310e565b9050919050565b600060208201905081810360008301526135fd8161318e565b9050919050565b6000602082019050613619600083018461321d565b92915050565b6000604051905081810181811067ffffffffffffffff8211171561364257600080fd5b8060405250919050565b600067ffffffffffffffff82111561366357600080fd5b601f19601f8301169050602081019050919050565b6000819050602082019050919050565b6000819050602082019050919050565b60008190508160005260206000209050919050565b600081519050919050565b600081519050919050565b600081519050919050565b600081519050919050565b6000602082019050919050565b6000602082019050919050565b600082825260208201905092915050565b600082825260208201905092915050565b600082825260208201905092915050565b600082825260208201905092915050565b600081905092915050565b600061374d82613760565b9050919050565b60008115159050919050565b600073ffffffffffffffffffffffffffffffffffffffff82169050919050565b6000819050919050565b82818337600083830152505050565b60005b838110156137b757808201518184015260208101905061379c565b838111156137c6576000848401525b50505050565b6000819050919050565b6000601f19601f8301169050919050565b6137f081613742565b81146137fb57600080fd5b50565b61380781613780565b811461381257600080fd5b5056fea2646970667358221220851081510a43b4b811144dfda79abf9fd90ce3a163f889551b401a24bf2e73bd64736f6c63430006020033",
  "source": "// SPDX-License-Identifier: MIT\npragma experimental ABIEncoderV2;\npragma solidity ^0.6.2;\n\ncontract SustainImpact{\n    \n    uint private id = 0;\n    \n    struct HWInfo{\n        string deviceId;\n        uint meterId;\n    }\n    \n    struct Users{\n        uint userId;\n        address userAddress;\n        string username;\n        string url;\n        uint phoneNumber;\n        uint hwCount;\n        mapping (uint => HWInfo) hwInfo;\n    }\n    \n    struct Order{\n        address userAddress;\n        uint unit;\n        uint energy;\n        string timeFrom;\n        string timeTo;\n        string deviceId;\n        string location;\n        uint amountOfPower;\n        uint price;\n        address buyerAddress;\n        string buyerDeviceId;\n        string status;\n    }\n    \n    struct Trade{\n        string tradeStatus;\n        uint sellersMeterReading_S;\n        uint buyersMeterReading_S;\n        uint sellersMeterReading_E;\n        uint buyersMeterReading_E;\n        uint tradeStartTime;\n        uint tradeEndTime;\n        uint sellerFine;\n        uint buyerFine;\n    }\n    \n    uint[] public orderId;\n    \n    mapping (address => Users) users;\n    mapping (uint => Order) orders;\n    mapping (uint => Trade) trades;\n    \n    \n    event NewOrderId(uint indexed _orderId);\n    \n    constructor() public{\n        \n    }\n    \n    function createUser(string memory _username, string memory _url, uint _phoneNumber, string memory _deviceId1, uint _meterId1, string memory _deviceId2, uint _meterId2) public{\n       id += 1;\n       users[msg.sender].userAddress = msg.sender;\n       users[msg.sender].userId = id;\n       users[msg.sender].username = _username;\n       users[msg.sender].url = _url;\n       users[msg.sender].phoneNumber = _phoneNumber;\n       users[msg.sender].hwInfo[1].deviceId = _deviceId1;\n       users[msg.sender].hwInfo[1].meterId = _meterId1;\n       users[msg.sender].hwInfo[2].deviceId = _deviceId2;\n       users[msg.sender].hwInfo[2].meterId = _meterId2;\n       users[msg.sender].hwCount = 2;\n    }\n    \n    function updateUser(address _userAddress, string memory _username, string memory _url, uint _phoneNumber, string memory _deviceId1, uint _meterId1, string memory _deviceId2, uint _meterId2) public{\n       require(msg.sender == users[_userAddress].userAddress);\n       users[msg.sender].username = _username;\n       users[msg.sender].url = _url;\n       users[msg.sender].phoneNumber = _phoneNumber;\n       users[msg.sender].hwInfo[1].deviceId = _deviceId1;\n       users[msg.sender].hwInfo[1].meterId = _meterId1;\n       users[msg.sender].hwInfo[2].deviceId = _deviceId2;\n       users[msg.sender].hwInfo[2].meterId = _meterId2;\n       users[msg.sender].hwCount = 2;\n        \n    }\n    \n    function getUser(address _userAddress) public view returns(string memory _username, string memory _url, uint _phoneNumber, string[] memory _deviceId, uint[] memory _meterId){\n        _deviceId = new string[](users[_userAddress].hwCount);\n        _meterId = new uint[](users[_userAddress].hwCount);\n        \n        _username = users[_userAddress].username;\n        _url = users[_userAddress].url;\n        _phoneNumber = users[_userAddress].phoneNumber;\n        uint index = 0;\n        for(uint i = 1; i <= users[_userAddress].hwCount; i++){\n            _deviceId[index] = users[_userAddress].hwInfo[i].deviceId;\n            _meterId[index] = users[_userAddress].hwInfo[i].meterId;\n            index++;\n        }\n        return (_username, _url, _phoneNumber, _deviceId, _meterId);\n    }\n    \n    function createOrder(uint _unit, uint _energy, string memory _timeFrom, string memory _timeTo, string memory _deviceId, string memory _location, uint _amountOfPower, uint _price) public returns(bool){\n        \n        uint _orderId = uint(keccak256(abi.encodePacked(now)));\n        orderId.push(_orderId);\n        orders[_orderId].userAddress = msg.sender;\n        orders[_orderId].unit = _unit;\n        orders[_orderId].energy = _energy;\n        orders[_orderId].timeFrom = _timeFrom;\n        orders[_orderId].timeTo = _timeTo;\n        orders[_orderId].deviceId = _deviceId;\n        orders[_orderId].location = _location;\n        orders[_orderId].amountOfPower = _amountOfPower;\n        orders[_orderId].price = _price;\n        orders[_orderId].status = \"Created\";\n        emit NewOrderId(_orderId);\n        return true;\n    }\n    \n    function getOrderId() public view returns(uint[] memory _orderId){\n        return orderId;\n    }\n    \n    function getOrder(uint _orderId) public view returns(address _userAddress, uint _unit, uint _energy, string memory _timeFrom, string memory _timeTo, string memory _deviceId, string memory _location, uint _amountOfPower, uint _price, address _buyerAddress, string memory _buyerDeviceId, string memory _status){\n        \n        _userAddress = orders[_orderId].userAddress;\n        _unit = orders[_orderId].unit;\n        _energy = orders[_orderId].energy;\n        _timeFrom = orders[_orderId].timeFrom;\n        _timeTo = orders[_orderId].timeTo;\n        _deviceId = orders[_orderId].deviceId;\n        _location = orders[_orderId].location;\n        _amountOfPower = orders[_orderId].amountOfPower;\n        _price = orders[_orderId].price;\n        _buyerAddress = orders[_orderId].buyerAddress;\n        _buyerDeviceId = orders[_orderId].buyerDeviceId;\n        _status = orders[_orderId].status;\n        \n        return (_userAddress, _unit, _energy, _timeFrom, _timeTo, _deviceId, _location, _amountOfPower, _price, _buyerAddress, _buyerDeviceId, _status);\n    }\n    \n    function updateOrder(uint _orderId, uint _unit, uint _energy, string memory _timeFrom, string memory _timeTo, string memory _deviceId, string memory _location, uint _amountOfPower, uint _price) public{\n        require(orders[_orderId].userAddress == msg.sender, \"You are not creator of this order\");\n        \n        orders[_orderId].userAddress = msg.sender;\n        orders[_orderId].unit = _unit;\n        orders[_orderId].energy = _energy;\n        orders[_orderId].timeFrom = _timeFrom;\n        orders[_orderId].timeTo = _timeTo;\n        orders[_orderId].deviceId = _deviceId;\n        orders[_orderId].location = _location;\n        orders[_orderId].amountOfPower = _amountOfPower;\n        orders[_orderId].price = _price;\n    }\n    \n    function acceptOrder(uint _orderId, string memory _buyerDeviceId) public returns(string memory ){\n        require(orders[_orderId].userAddress != msg.sender, \"You are creator of this order\");\n        require(keccak256(abi.encodePacked((orders[_orderId].status))) != keccak256(abi.encodePacked((\"Accepted\"))), \"Order is already accepted \");\n        require(keccak256(abi.encodePacked((orders[_orderId].status))) != keccak256(abi.encodePacked((\"Cancled\"))), \"Order is Cancled \");\n\n        string memory _msg = \"Order Accepted\";\n        orders[_orderId].buyerAddress = msg.sender;\n        orders[_orderId].buyerDeviceId = _buyerDeviceId;\n        orders[_orderId].status = \"Accepted\";\n        return _msg;\n    }\n    \n    function cancleOrder(uint _orderId) public returns(string memory){\n        require(orders[_orderId].userAddress == msg.sender, \"You are not creator of this order\");\n        \n        string memory _msg = \"Order Cancled\";\n        orders[_orderId].status = \"Cancled\";\n        return _msg;\n    }\n    \n    function deleteOrder(uint _orderId) public{\n        require(orders[_orderId].userAddress == msg.sender, \"You are not creator of this order\");\n        require(keccak256(abi.encodePacked((orders[_orderId].status))) != keccak256(abi.encodePacked((\"Created\"))), \"Order is already accepted \");\n        orders[_orderId].status = \"Deleted\";\n    }\n    \n    function startTrading(uint _orderId, uint _sellerMeterReading, uint _buyerMeterReading) public {\n        require(orders[_orderId].userAddress == msg.sender, \"You are not creator of this order\");\n        require(keccak256(abi.encodePacked((orders[_orderId].status))) == keccak256(abi.encodePacked((\"Accepted\"))), \"Order is not created yet. \");\n        \n        trades[_orderId].tradeStatus = \"Initiated\";\n        trades[_orderId].sellersMeterReading_S = _sellerMeterReading;\n        trades[_orderId].buyersMeterReading_S = _buyerMeterReading;\n        trades[_orderId].tradeStartTime = now;\n\n    }\n    \n    function endTrading(uint _orderId, uint _sellerMeterReading, uint _buyerMeterReading) public {\n        require(orders[_orderId].userAddress == msg.sender, \"You are not creator of this order\");\n        require(keccak256(abi.encodePacked((trades[_orderId].tradeStatus))) == keccak256(abi.encodePacked((\"Initiated\"))), \"Trade is not started yet. \");\n        \n        trades[_orderId].tradeStatus = \"Close\";\n        trades[_orderId].sellersMeterReading_E = _sellerMeterReading;\n        trades[_orderId].buyersMeterReading_E = _buyerMeterReading;\n        trades[_orderId].tradeEndTime = block.timestamp;\n    }\n    \n    function validateTrade(uint _orderId, uint _sellerFine, uint _buyerFine) public{\n        require(keccak256(abi.encodePacked((trades[_orderId].tradeStatus))) == keccak256(abi.encodePacked((\"Close\"))), \"Trade is not ended yet. \");\n\n        trades[_orderId].tradeStatus = \"Order Validated\";\n        trades[_orderId].sellerFine = _sellerFine;\n        trades[_orderId].buyerFine = _buyerFine;\n    }\n    \n    function getTradeDetails(uint _orderId) public view returns(string memory _tradeStatus, uint _sellerMeterReading_S, uint _buyerMeterReading_S, uint _sellerMeterReading_E, uint _buyerMeterReading_E, uint _tradeStart, uint _tradeEnd, uint _sellerFine, uint _buyerFine){\n        \n        _tradeStatus = trades[_orderId].tradeStatus;\n        _sellerMeterReading_S = trades[_orderId].sellersMeterReading_S;\n        _buyerMeterReading_S = trades[_orderId].buyersMeterReading_S;\n        _sellerMeterReading_E = trades[_orderId].sellersMeterReading_E;\n        _buyerMeterReading_E = trades[_orderId].buyersMeterReading_E;\n        _tradeStart = trades[_orderId].tradeStartTime;\n        _tradeEnd = trades[_orderId].tradeEndTime;\n        _sellerFine = trades[_orderId].sellerFine;\n        _buyerFine = trades[_orderId].buyerFine;\n        \n        return(_tradeStatus, _sellerMeterReading_S, _buyerMeterReading_S, _sellerMeterReading_E, _buyerMeterReading_E, _tradeStart, _tradeEnd, _sellerFine, _buyerFine);\n        \n    }\n}",
  "sourcePath": "/home/abc/Public/AliteProjects/Ethereum_Wallet1/Ethereum_Wallet/contracts/SustainImpact.sol",
  "compiler": {
    "name": "solc",
    "version": "0.6.2+commit.bacdbe57.Emscripten.clang"
  },
  "schemaVersion": "3.2.4",
  "updatedAt": "2020-11-10T09:37:49.906Z",
  "devdoc": {
    "methods": {}
  },
  "userdoc": {
    "methods": {}
  }
}