{
  "contractName": "SustainImpact",
  "abi": [
    {
      "inputs": [],
      "stateMutability": "nonpayable",
      "type": "constructor"
    },
    {
      "anonymous": false,
      "inputs": [
        {
          "indexed": true,
          "internalType": "uint256",
          "name": "_orderId",
          "type": "uint256"
        }
      ],
      "name": "NewOrderId",
      "type": "event"
    },
    {
      "inputs": [
        {
          "internalType": "uint256",
          "name": "",
          "type": "uint256"
        }
      ],
      "name": "orderId",
      "outputs": [
        {
          "internalType": "uint256",
          "name": "",
          "type": "uint256"
        }
      ],
      "stateMutability": "view",
      "type": "function"
    },
    {
      "inputs": [
        {
          "internalType": "string",
          "name": "_username",
          "type": "string"
        },
        {
          "internalType": "string",
          "name": "_url",
          "type": "string"
        },
        {
          "internalType": "uint256",
          "name": "_phoneNumber",
          "type": "uint256"
        },
        {
          "internalType": "string",
          "name": "_deviceId1",
          "type": "string"
        },
        {
          "internalType": "uint256",
          "name": "_meterId1",
          "type": "uint256"
        },
        {
          "internalType": "string",
          "name": "_deviceId2",
          "type": "string"
        },
        {
          "internalType": "uint256",
          "name": "_meterId2",
          "type": "uint256"
        }
      ],
      "name": "createUser",
      "outputs": [],
      "stateMutability": "nonpayable",
      "type": "function"
    },
    {
      "inputs": [
        {
          "internalType": "address",
          "name": "_userAddress",
          "type": "address"
        }
      ],
      "name": "getUser",
      "outputs": [
        {
          "internalType": "string",
          "name": "_username",
          "type": "string"
        },
        {
          "internalType": "string",
          "name": "_url",
          "type": "string"
        },
        {
          "internalType": "uint256",
          "name": "_phoneNumber",
          "type": "uint256"
        },
        {
          "internalType": "string[]",
          "name": "_deviceId",
          "type": "string[]"
        },
        {
          "internalType": "uint256[]",
          "name": "_meterId",
          "type": "uint256[]"
        }
      ],
      "stateMutability": "view",
      "type": "function"
    },
    {
      "inputs": [
        {
          "internalType": "uint256",
          "name": "_unit",
          "type": "uint256"
        },
        {
          "internalType": "uint256",
          "name": "_energy",
          "type": "uint256"
        },
        {
          "internalType": "string",
          "name": "_timeFrom",
          "type": "string"
        },
        {
          "internalType": "string",
          "name": "_timeTo",
          "type": "string"
        },
        {
          "internalType": "string",
          "name": "_deviceId",
          "type": "string"
        },
        {
          "internalType": "string",
          "name": "_location",
          "type": "string"
        },
        {
          "internalType": "uint256",
          "name": "_amountOfPower",
          "type": "uint256"
        },
        {
          "internalType": "uint256",
          "name": "_price",
          "type": "uint256"
        }
      ],
      "name": "createOrder",
      "outputs": [
        {
          "internalType": "bool",
          "name": "",
          "type": "bool"
        }
      ],
      "stateMutability": "nonpayable",
      "type": "function"
    },
    {
      "inputs": [],
      "name": "getOrderId",
      "outputs": [
        {
          "internalType": "uint256[]",
          "name": "_orderId",
          "type": "uint256[]"
        }
      ],
      "stateMutability": "view",
      "type": "function"
    },
    {
      "inputs": [
        {
          "internalType": "uint256",
          "name": "_orderId",
          "type": "uint256"
        }
      ],
      "name": "getOrder",
      "outputs": [
        {
          "internalType": "address",
          "name": "_userAddress",
          "type": "address"
        },
        {
          "internalType": "uint256",
          "name": "_unit",
          "type": "uint256"
        },
        {
          "internalType": "uint256",
          "name": "_energy",
          "type": "uint256"
        },
        {
          "internalType": "string",
          "name": "_timeFrom",
          "type": "string"
        },
        {
          "internalType": "string",
          "name": "_timeTo",
          "type": "string"
        },
        {
          "internalType": "string",
          "name": "_deviceId",
          "type": "string"
        },
        {
          "internalType": "string",
          "name": "_location",
          "type": "string"
        },
        {
          "internalType": "uint256",
          "name": "_amountOfPower",
          "type": "uint256"
        },
        {
          "internalType": "uint256",
          "name": "_price",
          "type": "uint256"
        },
        {
          "internalType": "address",
          "name": "_buyerAddress",
          "type": "address"
        },
        {
          "internalType": "string",
          "name": "_buyerDeviceId",
          "type": "string"
        },
        {
          "internalType": "string",
          "name": "_status",
          "type": "string"
        }
      ],
      "stateMutability": "view",
      "type": "function"
    },
    {
      "inputs": [
        {
          "internalType": "uint256",
          "name": "_orderId",
          "type": "uint256"
        },
        {
          "internalType": "uint256",
          "name": "_unit",
          "type": "uint256"
        },
        {
          "internalType": "uint256",
          "name": "_energy",
          "type": "uint256"
        },
        {
          "internalType": "string",
          "name": "_timeFrom",
          "type": "string"
        },
        {
          "internalType": "string",
          "name": "_timeTo",
          "type": "string"
        },
        {
          "internalType": "string",
          "name": "_deviceId",
          "type": "string"
        },
        {
          "internalType": "string",
          "name": "_location",
          "type": "string"
        },
        {
          "internalType": "uint256",
          "name": "_amountOfPower",
          "type": "uint256"
        },
        {
          "internalType": "uint256",
          "name": "_price",
          "type": "uint256"
        }
      ],
      "name": "updateOrder",
      "outputs": [],
      "stateMutability": "nonpayable",
      "type": "function"
    },
    {
      "inputs": [
        {
          "internalType": "uint256",
          "name": "_orderId",
          "type": "uint256"
        },
        {
          "internalType": "string",
          "name": "_buyerDeviceId",
          "type": "string"
        }
      ],
      "name": "acceptOrder",
      "outputs": [
        {
          "internalType": "string",
          "name": "",
          "type": "string"
        }
      ],
      "stateMutability": "nonpayable",
      "type": "function"
    },
    {
      "inputs": [
        {
          "internalType": "uint256",
          "name": "_orderId",
          "type": "uint256"
        }
      ],
      "name": "cancleOrder",
      "outputs": [
        {
          "internalType": "string",
          "name": "",
          "type": "string"
        }
      ],
      "stateMutability": "nonpayable",
      "type": "function"
    },
    {
      "inputs": [
        {
          "internalType": "uint256",
          "name": "_orderId",
          "type": "uint256"
        }
      ],
      "name": "deleteOrder",
      "outputs": [],
      "stateMutability": "nonpayable",
      "type": "function"
    },
    {
      "inputs": [
        {
          "internalType": "uint256",
          "name": "_orderId",
          "type": "uint256"
        },
        {
          "internalType": "uint256",
          "name": "_sellerMeterReading",
          "type": "uint256"
        },
        {
          "internalType": "uint256",
          "name": "_buyerMeterReading",
          "type": "uint256"
        }
      ],
      "name": "startTrading",
      "outputs": [],
      "stateMutability": "nonpayable",
      "type": "function"
    },
    {
      "inputs": [
        {
          "internalType": "uint256",
          "name": "_orderId",
          "type": "uint256"
        },
        {
          "internalType": "uint256",
          "name": "_sellerMeterReading",
          "type": "uint256"
        },
        {
          "internalType": "uint256",
          "name": "_buyerMeterReading",
          "type": "uint256"
        }
      ],
      "name": "endTrading",
      "outputs": [],
      "stateMutability": "nonpayable",
      "type": "function"
    },
    {
      "inputs": [
        {
          "internalType": "uint256",
          "name": "_orderId",
          "type": "uint256"
        },
        {
          "internalType": "uint256",
          "name": "_sellerFine",
          "type": "uint256"
        },
        {
          "internalType": "uint256",
          "name": "_buyerFine",
          "type": "uint256"
        }
      ],
      "name": "validateTrade",
      "outputs": [],
      "stateMutability": "nonpayable",
      "type": "function"
    },
    {
      "inputs": [
        {
          "internalType": "uint256",
          "name": "_orderId",
          "type": "uint256"
        }
      ],
      "name": "getTradeDetails",
      "outputs": [
        {
          "internalType": "string",
          "name": "_tradeStatus",
          "type": "string"
        },
        {
          "internalType": "uint256",
          "name": "_sellerMeterReading_S",
          "type": "uint256"
        },
        {
          "internalType": "uint256",
          "name": "_buyerMeterReading_S",
          "type": "uint256"
        },
        {
          "internalType": "uint256",
          "name": "_sellerMeterReading_E",
          "type": "uint256"
        },
        {
          "internalType": "uint256",
          "name": "_buyerMeterReading_E",
          "type": "uint256"
        },
        {
          "internalType": "uint256",
          "name": "_tradeStart",
          "type": "uint256"
        },
        {
          "internalType": "uint256",
          "name": "_tradeEnd",
          "type": "uint256"
        },
        {
          "internalType": "uint256",
          "name": "_sellerFine",
          "type": "uint256"
        },
        {
          "internalType": "uint256",
          "name": "_buyerFine",
          "type": "uint256"
        }
      ],
      "stateMutability": "view",
      "type": "function"
    }
  ],
  "bytecode": "0x60806040526000805534801561001457600080fd5b50613321806100246000396000f3fe608060405234801561001057600080fd5b50600436106100ea5760003560e01c80636f77926b1161008c578063c746f51d11610066578063c746f51d14610265578063d09ef24114610281578063d45c1dfd146102bc578063f406cb8a146102ec576100ea565b80636f77926b146101e3578063707fb79e14610217578063a849642614610247576100ea565b806311a00327116100c857806311a00327146101435780632d7e8a591461015f57806364a8cce91461017b578063695730a5146101ab576100ea565b8063014c6966146100ef5780630ab7529e1461010b5780630bfe16f914610127575b600080fd5b6101096004803603610104919081019061262c565b61031c565b005b6101256004803603610120919081019061267b565b610517565b005b610141600480360361013c919081019061262c565b610733565b005b61015d6004803603610158919081019061249d565b61092e565b005b6101796004803603610174919081019061239f565b610ad7565b005b610195600480360361019091908101906124c6565b610e05565b6040516101a29190612ed5565b60405180910390f35b6101c560048036036101c0919081019061249d565b611114565b6040516101da99989796959493929190612f66565b60405180910390f35b6101fd60048036036101f89190810190612376565b6112c3565b60405161020e959493929190612ef7565b60405180910390f35b610231600480360361022c919081019061249d565b6117b0565b60405161023e91906130da565b60405180910390f35b61024f6117d1565b60405161025c9190612e98565b60405180910390f35b61027f600480360361027a919081019061262c565b611829565b005b61029b6004803603610296919081019061249d565b611965565b6040516102b39c9b9a99989796959493929190612db4565b60405180910390f35b6102d660048036036102d1919081019061251a565b611ea7565b6040516102e39190612eba565b60405180910390f35b6103066004803603610301919081019061249d565b61210a565b6040516103139190612ed5565b60405180910390f35b3373ffffffffffffffffffffffffffffffffffffffff166003600085815260200190815260200160002060000160009054906101000a900473ffffffffffffffffffffffffffffffffffffffff1673ffffffffffffffffffffffffffffffffffffffff16146103c0576040517f08c379a00000000000000000000000000000000000000000000000000000000081526004016103b79061305a565b60405180910390fd5b6040516020016103cf90612d5a565b6040516020818303038152906040528051906020012060036000858152602001908152602001600020600b0160405160200161040b9190612d19565b6040516020818303038152906040528051906020012014610461576040517f08c379a00000000000000000000000000000000000000000000000000000000081526004016104589061309a565b60405180910390fd5b6040518060400160405280600981526020017f496e6974696174656400000000000000000000000000000000000000000000008152506004600085815260200190815260200160002060000190805190602001906104c0929190612253565b50816004600085815260200190815260200160002060010181905550806004600085815260200190815260200160002060020181905550426004600085815260200190815260200160002060050181905550505050565b3373ffffffffffffffffffffffffffffffffffffffff16600360008b815260200190815260200160002060000160009054906101000a900473ffffffffffffffffffffffffffffffffffffffff1673ffffffffffffffffffffffffffffffffffffffff16146105bb576040517f08c379a00000000000000000000000000000000000000000000000000000000081526004016105b29061305a565b60405180910390fd5b33600360008b815260200190815260200160002060000160006101000a81548173ffffffffffffffffffffffffffffffffffffffff021916908373ffffffffffffffffffffffffffffffffffffffff16021790555087600360008b81526020019081526020016000206001018190555086600360008b81526020019081526020016000206002018190555085600360008b81526020019081526020016000206003019080519060200190610670929190612253565b5084600360008b8152602001908152602001600020600401908051906020019061069b929190612253565b5083600360008b815260200190815260200160002060050190805190602001906106c6929190612253565b5082600360008b815260200190815260200160002060060190805190602001906106f1929190612253565b5081600360008b81526020019081526020016000206007018190555080600360008b815260200190815260200160002060080181905550505050505050505050565b3373ffffffffffffffffffffffffffffffffffffffff166003600085815260200190815260200160002060000160009054906101000a900473ffffffffffffffffffffffffffffffffffffffff1673ffffffffffffffffffffffffffffffffffffffff16146107d7576040517f08c379a00000000000000000000000000000000000000000000000000000000081526004016107ce9061305a565b60405180910390fd5b6040516020016107e690612d45565b60405160208183030381529060405280519060200120600460008581526020019081526020016000206000016040516020016108229190612d19565b6040516020818303038152906040528051906020012014610878576040517f08c379a000000000000000000000000000000000000000000000000000000000815260040161086f9061307a565b60405180910390fd5b6040518060400160405280600581526020017f436c6f73650000000000000000000000000000000000000000000000000000008152506004600085815260200190815260200160002060000190805190602001906108d7929190612253565b50816004600085815260200190815260200160002060030181905550806004600085815260200190815260200160002060040181905550426004600085815260200190815260200160002060060181905550505050565b3373ffffffffffffffffffffffffffffffffffffffff166003600083815260200190815260200160002060000160009054906101000a900473ffffffffffffffffffffffffffffffffffffffff1673ffffffffffffffffffffffffffffffffffffffff16146109d2576040517f08c379a00000000000000000000000000000000000000000000000000000000081526004016109c99061305a565b60405180910390fd5b6040516020016109e190612d6f565b6040516020818303038152906040528051906020012060036000838152602001908152602001600020600b01604051602001610a1d9190612d19565b604051602081830303815290604052805190602001201415610a74576040517f08c379a0000000000000000000000000000000000000000000000000000000008152600401610a6b90612ffa565b60405180910390fd5b6040518060400160405280600781526020017f44656c657465640000000000000000000000000000000000000000000000000081525060036000838152602001908152602001600020600b019080519060200190610ad3929190612253565b5050565b60016000808282540192505081905550600054600260003373ffffffffffffffffffffffffffffffffffffffff1673ffffffffffffffffffffffffffffffffffffffff1681526020019081526020016000206000018190555086600260003373ffffffffffffffffffffffffffffffffffffffff1673ffffffffffffffffffffffffffffffffffffffff1681526020019081526020016000206001019080519060200190610b86929190612253565b5085600260003373ffffffffffffffffffffffffffffffffffffffff1673ffffffffffffffffffffffffffffffffffffffff1681526020019081526020016000206002019080519060200190610bdd929190612253565b5084600260003373ffffffffffffffffffffffffffffffffffffffff1673ffffffffffffffffffffffffffffffffffffffff1681526020019081526020016000206003018190555083600260003373ffffffffffffffffffffffffffffffffffffffff1673ffffffffffffffffffffffffffffffffffffffff1681526020019081526020016000206005016000600181526020019081526020016000206000019080519060200190610c90929190612253565b5082600260003373ffffffffffffffffffffffffffffffffffffffff1673ffffffffffffffffffffffffffffffffffffffff1681526020019081526020016000206005016000600181526020019081526020016000206001018190555081600260003373ffffffffffffffffffffffffffffffffffffffff1673ffffffffffffffffffffffffffffffffffffffff1681526020019081526020016000206005016000600281526020019081526020016000206000019080519060200190610d58929190612253565b5080600260003373ffffffffffffffffffffffffffffffffffffffff1673ffffffffffffffffffffffffffffffffffffffff1681526020019081526020016000206005016000600281526020019081526020016000206001018190555060028060003373ffffffffffffffffffffffffffffffffffffffff1673ffffffffffffffffffffffffffffffffffffffff1681526020019081526020016000206004018190555050505050505050565b60603373ffffffffffffffffffffffffffffffffffffffff166003600085815260200190815260200160002060000160009054906101000a900473ffffffffffffffffffffffffffffffffffffffff1673ffffffffffffffffffffffffffffffffffffffff161415610eac576040517f08c379a0000000000000000000000000000000000000000000000000000000008152600401610ea3906130ba565b60405180910390fd5b604051602001610ebb90612d5a565b6040516020818303038152906040528051906020012060036000858152602001908152602001600020600b01604051602001610ef79190612d19565b604051602081830303815290604052805190602001201415610f4e576040517f08c379a0000000000000000000000000000000000000000000000000000000008152600401610f4590612ffa565b60405180910390fd5b604051602001610f5d90612d84565b6040516020818303038152906040528051906020012060036000858152602001908152602001600020600b01604051602001610f999190612d19565b604051602081830303815290604052805190602001201415610ff0576040517f08c379a0000000000000000000000000000000000000000000000000000000008152600401610fe79061303a565b60405180910390fd5b60606040518060400160405280600e81526020017f4f726465722041636365707465640000000000000000000000000000000000008152509050336003600086815260200190815260200160002060090160006101000a81548173ffffffffffffffffffffffffffffffffffffffff021916908373ffffffffffffffffffffffffffffffffffffffff1602179055508260036000868152602001908152602001600020600a0190805190602001906110a9929190612253565b506040518060400160405280600881526020017f416363657074656400000000000000000000000000000000000000000000000081525060036000868152602001908152602001600020600b019080519060200190611109929190612253565b508091505092915050565b6060600080600080600080600080600460008b81526020019081526020016000206000018054600181600116156101000203166002900480601f0160208091040260200160405190810160405280929190818152602001828054600181600116156101000203166002900480156111cc5780601f106111a1576101008083540402835291602001916111cc565b820191906000526020600020905b8154815290600101906020018083116111af57829003601f168201915b50505050509850600460008b8152602001908152602001600020600101549750600460008b8152602001908152602001600020600201549650600460008b8152602001908152602001600020600301549550600460008b8152602001908152602001600020600401549450600460008b8152602001908152602001600020600501549350600460008b8152602001908152602001600020600601549250600460008b8152602001908152602001600020600701549150600460008b81526020019081526020016000206008015490508888888888888888889850985098509850985098509850985098509193959799909294969850565b6060806000606080600260008773ffffffffffffffffffffffffffffffffffffffff1673ffffffffffffffffffffffffffffffffffffffff1681526020019081526020016000206004015460405190808252806020026020018201604052801561134157816020015b606081526020019060019003908161132c5790505b509150600260008773ffffffffffffffffffffffffffffffffffffffff1673ffffffffffffffffffffffffffffffffffffffff168152602001908152602001600020600401546040519080825280602002602001820160405280156113b55781602001602082028038833980820191505090505b509050600260008773ffffffffffffffffffffffffffffffffffffffff1673ffffffffffffffffffffffffffffffffffffffff1681526020019081526020016000206001018054600181600116156101000203166002900480601f01602080910402602001604051908101604052809291908181526020018280546001816001161561010002031660029004801561148e5780601f106114635761010080835404028352916020019161148e565b820191906000526020600020905b81548152906001019060200180831161147157829003601f168201915b50505050509450600260008773ffffffffffffffffffffffffffffffffffffffff1673ffffffffffffffffffffffffffffffffffffffff1681526020019081526020016000206002018054600181600116156101000203166002900480601f01602080910402602001604051908101604052809291908181526020018280546001816001161561010002031660029004801561156b5780601f106115405761010080835404028352916020019161156b565b820191906000526020600020905b81548152906001019060200180831161154e57829003601f168201915b50505050509350600260008773ffffffffffffffffffffffffffffffffffffffff1673ffffffffffffffffffffffffffffffffffffffff16815260200190815260200160002060030154925060008090506000600190505b600260008973ffffffffffffffffffffffffffffffffffffffff1673ffffffffffffffffffffffffffffffffffffffff16815260200190815260200160002060040154811161179657600260008973ffffffffffffffffffffffffffffffffffffffff1673ffffffffffffffffffffffffffffffffffffffff16815260200190815260200160002060050160008281526020019081526020016000206000018054600181600116156101000203166002900480601f0160208091040260200160405190810160405280929190818152602001828054600181600116156101000203166002900480156116f65780601f106116cb576101008083540402835291602001916116f6565b820191906000526020600020905b8154815290600101906020018083116116d957829003601f168201915b505050505084838151811061170757fe5b6020026020010181905250600260008973ffffffffffffffffffffffffffffffffffffffff1673ffffffffffffffffffffffffffffffffffffffff16815260200190815260200160002060050160008281526020019081526020016000206001015483838151811061177557fe5b602002602001018181525050818060010192505080806001019150506115c3565b508585858585955095509550955095505091939590929450565b600181815481106117bd57fe5b906000526020600020016000915090505481565b6060600180548060200260200160405190810160405280929190818152602001828054801561181f57602002820191906000526020600020905b81548152602001906001019080831161180b575b5050505050905090565b60405160200161183890612d30565b60405160208183030381529060405280519060200120600460008581526020019081526020016000206000016040516020016118749190612d19565b60405160208183030381529060405280519060200120146118ca576040517f08c379a00000000000000000000000000000000000000000000000000000000081526004016118c19061301a565b60405180910390fd5b6040518060400160405280600f81526020017f4f726465722056616c6964617465640000000000000000000000000000000000815250600460008581526020019081526020016000206000019080519060200190611929929190612253565b50816004600085815260200190815260200160002060070181905550806004600085815260200190815260200160002060080181905550505050565b60008060006060806060806000806000606080600360008e815260200190815260200160002060000160009054906101000a900473ffffffffffffffffffffffffffffffffffffffff169b50600360008e8152602001908152602001600020600101549a50600360008e8152602001908152602001600020600201549950600360008e81526020019081526020016000206003018054600181600116156101000203166002900480601f016020809104026020016040519081016040528092919081815260200182805460018160011615610100020316600290048015611a8d5780601f10611a6257610100808354040283529160200191611a8d565b820191906000526020600020905b815481529060010190602001808311611a7057829003601f168201915b50505050509850600360008e81526020019081526020016000206004018054600181600116156101000203166002900480601f016020809104026020016040519081016040528092919081815260200182805460018160011615610100020316600290048015611b3e5780601f10611b1357610100808354040283529160200191611b3e565b820191906000526020600020905b815481529060010190602001808311611b2157829003601f168201915b50505050509750600360008e81526020019081526020016000206005018054600181600116156101000203166002900480601f016020809104026020016040519081016040528092919081815260200182805460018160011615610100020316600290048015611bef5780601f10611bc457610100808354040283529160200191611bef565b820191906000526020600020905b815481529060010190602001808311611bd257829003601f168201915b50505050509650600360008e81526020019081526020016000206006018054600181600116156101000203166002900480601f016020809104026020016040519081016040528092919081815260200182805460018160011615610100020316600290048015611ca05780601f10611c7557610100808354040283529160200191611ca0565b820191906000526020600020905b815481529060010190602001808311611c8357829003601f168201915b50505050509550600360008e8152602001908152602001600020600701549450600360008e8152602001908152602001600020600801549350600360008e815260200190815260200160002060090160009054906101000a900473ffffffffffffffffffffffffffffffffffffffff169250600360008e8152602001908152602001600020600a018054600181600116156101000203166002900480601f016020809104026020016040519081016040528092919081815260200182805460018160011615610100020316600290048015611dbc5780601f10611d9157610100808354040283529160200191611dbc565b820191906000526020600020905b815481529060010190602001808311611d9f57829003601f168201915b50505050509150600360008e8152602001908152602001600020600b018054600181600116156101000203166002900480601f016020809104026020016040519081016040528092919081815260200182805460018160011615610100020316600290048015611e6d5780601f10611e4257610100808354040283529160200191611e6d565b820191906000526020600020905b815481529060010190602001808311611e5057829003601f168201915b505050505090508b8b8b8b8b8b8b8b8b8b8b8b9b509b509b509b509b509b509b509b509b509b509b509b5091939597999b5091939597999b565b60008042604051602001611ebb9190612d99565b6040516020818303038152906040528051906020012060001c90506001819080600181540180825580915050600190039060005260206000200160009091909190915055336003600083815260200190815260200160002060000160006101000a81548173ffffffffffffffffffffffffffffffffffffffff021916908373ffffffffffffffffffffffffffffffffffffffff16021790555089600360008381526020019081526020016000206001018190555088600360008381526020019081526020016000206002018190555087600360008381526020019081526020016000206003019080519060200190611fb4929190612253565b5086600360008381526020019081526020016000206004019080519060200190611fdf929190612253565b508560036000838152602001908152602001600020600501908051906020019061200a929190612253565b5084600360008381526020019081526020016000206006019080519060200190612035929190612253565b508360036000838152602001908152602001600020600701819055508260036000838152602001908152602001600020600801819055506040518060400160405280600781526020017f437265617465640000000000000000000000000000000000000000000000000081525060036000838152602001908152602001600020600b0190805190602001906120cb929190612253565b50807fd5717c284e46061bdc0b3b75e5cb3645f34417cbd74ca53b845d2f967882afc660405160405180910390a2600191505098975050505050505050565b60603373ffffffffffffffffffffffffffffffffffffffff166003600084815260200190815260200160002060000160009054906101000a900473ffffffffffffffffffffffffffffffffffffffff1673ffffffffffffffffffffffffffffffffffffffff16146121b0576040517f08c379a00000000000000000000000000000000000000000000000000000000081526004016121a79061305a565b60405180910390fd5b60606040518060400160405280600d81526020017f4f726465722043616e636c65640000000000000000000000000000000000000081525090506040518060400160405280600781526020017f43616e636c65640000000000000000000000000000000000000000000000000081525060036000858152602001908152602001600020600b019080519060200190612249929190612253565b5080915050919050565b828054600181600116156101000203166002900490600052602060002090601f016020900481019282601f1061229457805160ff19168380011785556122c2565b828001600101855582156122c2579182015b828111156122c15782518255916020019190600101906122a6565b5b5090506122cf91906122d3565b5090565b6122f591905b808211156122f15760008160009055506001016122d9565b5090565b90565b600081359050612307816132bd565b92915050565b600082601f83011261231e57600080fd5b813561233161232c82613122565b6130f5565b9150808252602083016020830185838301111561234d57600080fd5b612358838284613260565b50505092915050565b600081359050612370816132d4565b92915050565b60006020828403121561238857600080fd5b6000612396848285016122f8565b91505092915050565b600080600080600080600060e0888a0312156123ba57600080fd5b600088013567ffffffffffffffff8111156123d457600080fd5b6123e08a828b0161230d565b975050602088013567ffffffffffffffff8111156123fd57600080fd5b6124098a828b0161230d565b965050604061241a8a828b01612361565b955050606088013567ffffffffffffffff81111561243757600080fd5b6124438a828b0161230d565b94505060806124548a828b01612361565b93505060a088013567ffffffffffffffff81111561247157600080fd5b61247d8a828b0161230d565b92505060c061248e8a828b01612361565b91505092959891949750929550565b6000602082840312156124af57600080fd5b60006124bd84828501612361565b91505092915050565b600080604083850312156124d957600080fd5b60006124e785828601612361565b925050602083013567ffffffffffffffff81111561250457600080fd5b6125108582860161230d565b9150509250929050565b600080600080600080600080610100898b03121561253757600080fd5b60006125458b828c01612361565b98505060206125568b828c01612361565b975050604089013567ffffffffffffffff81111561257357600080fd5b61257f8b828c0161230d565b965050606089013567ffffffffffffffff81111561259c57600080fd5b6125a88b828c0161230d565b955050608089013567ffffffffffffffff8111156125c557600080fd5b6125d18b828c0161230d565b94505060a089013567ffffffffffffffff8111156125ee57600080fd5b6125fa8b828c0161230d565b93505060c061260b8b828c01612361565b92505060e061261c8b828c01612361565b9150509295985092959890939650565b60008060006060848603121561264157600080fd5b600061264f86828701612361565b935050602061266086828701612361565b925050604061267186828701612361565b9150509250925092565b60008060008060008060008060006101208a8c03121561269a57600080fd5b60006126a88c828d01612361565b99505060206126b98c828d01612361565b98505060406126ca8c828d01612361565b97505060608a013567ffffffffffffffff8111156126e757600080fd5b6126f38c828d0161230d565b96505060808a013567ffffffffffffffff81111561271057600080fd5b61271c8c828d0161230d565b95505060a08a013567ffffffffffffffff81111561273957600080fd5b6127458c828d0161230d565b94505060c08a013567ffffffffffffffff81111561276257600080fd5b61276e8c828d0161230d565b93505060e061277f8c828d01612361565b9250506101006127918c828d01612361565b9150509295985092959850929598565b60006127ad83836128f7565b905092915050565b60006127c18383612ce4565b60208301905092915050565b6127d681613218565b82525050565b60006127e782613183565b6127f181856131c9565b9350836020820285016128038561314e565b8060005b8581101561283f578484038952815161282085826127a1565b945061282b836131af565b925060208a01995050600181019050612807565b50829750879550505050505092915050565b600061285c8261318e565b61286681856131da565b93506128718361315e565b8060005b838110156128a257815161288988826127b5565b9750612894836131bc565b925050600181019050612875565b5085935050505092915050565b6128b88161322a565b82525050565b60006128c9826131a4565b6128d381856131fc565b93506128e381856020860161326f565b6128ec816132ac565b840191505092915050565b600061290282613199565b61290c81856131eb565b935061291c81856020860161326f565b612925816132ac565b840191505092915050565b60008154600181166000811461294d5760018114612972576129b6565b607f600283041661295e818761320d565b955060ff19831686528086019350506129b6565b60028204612980818761320d565b955061298b8561316e565b60005b828110156129ad5781548189015260018201915060208101905061298e565b82880195505050505b505092915050565b60006129cb601a836131fc565b91507f4f7264657220697320616c7265616479206163636570746564200000000000006000830152602082019050919050565b6000612a0b6018836131fc565b91507f5472616465206973206e6f7420656e646564207965742e2000000000000000006000830152602082019050919050565b6000612a4b6011836131fc565b91507f4f726465722069732043616e636c6564200000000000000000000000000000006000830152602082019050919050565b6000612a8b60058361320d565b91507f436c6f73650000000000000000000000000000000000000000000000000000006000830152600582019050919050565b6000612acb6021836131fc565b91507f596f7520617265206e6f742063726561746f72206f662074686973206f72646560008301527f72000000000000000000000000000000000000000000000000000000000000006020830152604082019050919050565b6000612b3160098361320d565b91507f496e6974696174656400000000000000000000000000000000000000000000006000830152600982019050919050565b6000612b7160088361320d565b91507f41636365707465640000000000000000000000000000000000000000000000006000830152600882019050919050565b6000612bb1601a836131fc565b91507f5472616465206973206e6f742073746172746564207965742e200000000000006000830152602082019050919050565b6000612bf1601a836131fc565b91507f4f72646572206973206e6f742063726561746564207965742e200000000000006000830152602082019050919050565b6000612c3160078361320d565b91507f43726561746564000000000000000000000000000000000000000000000000006000830152600782019050919050565b6000612c71601d836131fc565b91507f596f75206172652063726561746f72206f662074686973206f726465720000006000830152602082019050919050565b6000612cb160078361320d565b91507f43616e636c6564000000000000000000000000000000000000000000000000006000830152600782019050919050565b612ced81613256565b82525050565b612cfc81613256565b82525050565b612d13612d0e82613256565b6132a2565b82525050565b6000612d258284612930565b915081905092915050565b6000612d3b82612a7e565b9150819050919050565b6000612d5082612b24565b9150819050919050565b6000612d6582612b64565b9150819050919050565b6000612d7a82612c24565b9150819050919050565b6000612d8f82612ca4565b9150819050919050565b6000612da58284612d02565b60208201915081905092915050565b600061018082019050612dca600083018f6127cd565b612dd7602083018e612cf3565b612de4604083018d612cf3565b8181036060830152612df6818c6128be565b90508181036080830152612e0a818b6128be565b905081810360a0830152612e1e818a6128be565b905081810360c0830152612e3281896128be565b9050612e4160e0830188612cf3565b612e4f610100830187612cf3565b612e5d6101208301866127cd565b818103610140830152612e7081856128be565b9050818103610160830152612e8581846128be565b90509d9c50505050505050505050505050565b60006020820190508181036000830152612eb28184612851565b905092915050565b6000602082019050612ecf60008301846128af565b92915050565b60006020820190508181036000830152612eef81846128be565b905092915050565b600060a0820190508181036000830152612f1181886128be565b90508181036020830152612f2581876128be565b9050612f346040830186612cf3565b8181036060830152612f4681856127dc565b90508181036080830152612f5a8184612851565b90509695505050505050565b6000610120820190508181036000830152612f81818c6128be565b9050612f90602083018b612cf3565b612f9d604083018a612cf3565b612faa6060830189612cf3565b612fb76080830188612cf3565b612fc460a0830187612cf3565b612fd160c0830186612cf3565b612fde60e0830185612cf3565b612fec610100830184612cf3565b9a9950505050505050505050565b60006020820190508181036000830152613013816129be565b9050919050565b60006020820190508181036000830152613033816129fe565b9050919050565b6000602082019050818103600083015261305381612a3e565b9050919050565b6000602082019050818103600083015261307381612abe565b9050919050565b6000602082019050818103600083015261309381612ba4565b9050919050565b600060208201905081810360008301526130b381612be4565b9050919050565b600060208201905081810360008301526130d381612c64565b9050919050565b60006020820190506130ef6000830184612cf3565b92915050565b6000604051905081810181811067ffffffffffffffff8211171561311857600080fd5b8060405250919050565b600067ffffffffffffffff82111561313957600080fd5b601f19601f8301169050602081019050919050565b6000819050602082019050919050565b6000819050602082019050919050565b60008190508160005260206000209050919050565b600081519050919050565b600081519050919050565b600081519050919050565b600081519050919050565b6000602082019050919050565b6000602082019050919050565b600082825260208201905092915050565b600082825260208201905092915050565b600082825260208201905092915050565b600082825260208201905092915050565b600081905092915050565b600061322382613236565b9050919050565b60008115159050919050565b600073ffffffffffffffffffffffffffffffffffffffff82169050919050565b6000819050919050565b82818337600083830152505050565b60005b8381101561328d578082015181840152602081019050613272565b8381111561329c576000848401525b50505050565b6000819050919050565b6000601f19601f8301169050919050565b6132c681613218565b81146132d157600080fd5b50565b6132dd81613256565b81146132e857600080fd5b5056fea264697066735822122056d8df8d0f81ee9f7a5000e7d1bca33127eab29ef5e26152f5361f72a9e8e7c464736f6c63430006020033",
  "source": "// SPDX-License-Identifier: MIT\npragma experimental ABIEncoderV2;\npragma solidity ^0.6.2;\n\ncontract SustainImpact{\n    \n    uint private id = 0;\n    \n    struct HWInfo{\n        string deviceId;\n        uint meterId;\n    }\n    \n    struct Users{\n        uint userId;\n        string username;\n        string url;\n        uint phoneNumber;\n        uint hwCount;\n        mapping (uint => HWInfo) hwInfo;\n    }\n    \n    struct Order{\n        address userAddress;\n        uint unit;\n        uint energy;\n        string timeFrom;\n        string timeTo;\n        string deviceId;\n        string location;\n        uint amountOfPower;\n        uint price;\n        address buyerAddress;\n        string buyerDeviceId;\n        string status;\n    }\n    \n    struct Trade{\n        string tradeStatus;\n        uint sellersMeterReading_S;\n        uint buyersMeterReading_S;\n        uint sellersMeterReading_E;\n        uint buyersMeterReading_E;\n        uint tradeStartTime;\n        uint tradeEndTime;\n        uint sellerFine;\n        uint buyerFine;\n    }\n    \n    uint[] public orderId;\n    \n    mapping (address => Users) users;\n    mapping (uint => Order) orders;\n    mapping (uint => Trade) trades;\n    \n    \n    event NewOrderId(uint indexed _orderId);\n    \n    constructor() public{\n        \n    }\n    \n    function createUser(string memory _username, string memory _url, uint _phoneNumber, string memory _deviceId1, uint _meterId1, string memory _deviceId2, uint _meterId2) public{\n       id += 1;\n       users[msg.sender].userId = id;\n       users[msg.sender].username = _username;\n       users[msg.sender].url = _url;\n       users[msg.sender].phoneNumber = _phoneNumber;\n       users[msg.sender].hwInfo[1].deviceId = _deviceId1;\n       users[msg.sender].hwInfo[1].meterId = _meterId1;\n       users[msg.sender].hwInfo[2].deviceId = _deviceId2;\n       users[msg.sender].hwInfo[2].meterId = _meterId2;\n       users[msg.sender].hwCount = 2;\n    }\n    \n    function getUser(address _userAddress) public view returns(string memory _username, string memory _url, uint _phoneNumber, string[] memory _deviceId, uint[] memory _meterId){\n        _deviceId = new string[](users[_userAddress].hwCount);\n        _meterId = new uint[](users[_userAddress].hwCount);\n        \n        _username = users[_userAddress].username;\n        _url = users[_userAddress].url;\n        _phoneNumber = users[_userAddress].phoneNumber;\n        uint index = 0;\n        for(uint i = 1; i <= users[_userAddress].hwCount; i++){\n            _deviceId[index] = users[_userAddress].hwInfo[i].deviceId;\n            _meterId[index] = users[_userAddress].hwInfo[i].meterId;\n            index++;\n        }\n        return (_username, _url, _phoneNumber, _deviceId, _meterId);\n    }\n    \n    function createOrder(uint _unit, uint _energy, string memory _timeFrom, string memory _timeTo, string memory _deviceId, string memory _location, uint _amountOfPower, uint _price) public returns(bool){\n        \n        uint _orderId = uint(keccak256(abi.encodePacked(now)));\n        orderId.push(_orderId);\n        orders[_orderId].userAddress = msg.sender;\n        orders[_orderId].unit = _unit;\n        orders[_orderId].energy = _energy;\n        orders[_orderId].timeFrom = _timeFrom;\n        orders[_orderId].timeTo = _timeTo;\n        orders[_orderId].deviceId = _deviceId;\n        orders[_orderId].location = _location;\n        orders[_orderId].amountOfPower = _amountOfPower;\n        orders[_orderId].price = _price;\n        orders[_orderId].status = \"Created\";\n        emit NewOrderId(_orderId);\n        return true;\n    }\n    \n    function getOrderId() public view returns(uint[] memory _orderId){\n        return orderId;\n    }\n    \n    function getOrder(uint _orderId) public view returns(address _userAddress, uint _unit, uint _energy, string memory _timeFrom, string memory _timeTo, string memory _deviceId, string memory _location, uint _amountOfPower, uint _price, address _buyerAddress, string memory _buyerDeviceId, string memory _status){\n        \n        _userAddress = orders[_orderId].userAddress;\n        _unit = orders[_orderId].unit;\n        _energy = orders[_orderId].energy;\n        _timeFrom = orders[_orderId].timeFrom;\n        _timeTo = orders[_orderId].timeTo;\n        _deviceId = orders[_orderId].deviceId;\n        _location = orders[_orderId].location;\n        _amountOfPower = orders[_orderId].amountOfPower;\n        _price = orders[_orderId].price;\n        _buyerAddress = orders[_orderId].buyerAddress;\n        _buyerDeviceId = orders[_orderId].buyerDeviceId;\n        _status = orders[_orderId].status;\n        \n        return (_userAddress, _unit, _energy, _timeFrom, _timeTo, _deviceId, _location, _amountOfPower, _price, _buyerAddress, _buyerDeviceId, _status);\n    }\n    \n    function updateOrder(uint _orderId, uint _unit, uint _energy, string memory _timeFrom, string memory _timeTo, string memory _deviceId, string memory _location, uint _amountOfPower, uint _price) public{\n        require(orders[_orderId].userAddress == msg.sender, \"You are not creator of this order\");\n        \n        orders[_orderId].userAddress = msg.sender;\n        orders[_orderId].unit = _unit;\n        orders[_orderId].energy = _energy;\n        orders[_orderId].timeFrom = _timeFrom;\n        orders[_orderId].timeTo = _timeTo;\n        orders[_orderId].deviceId = _deviceId;\n        orders[_orderId].location = _location;\n        orders[_orderId].amountOfPower = _amountOfPower;\n        orders[_orderId].price = _price;\n    }\n    \n    function acceptOrder(uint _orderId, string memory _buyerDeviceId) public returns(string memory ){\n        require(orders[_orderId].userAddress != msg.sender, \"You are creator of this order\");\n        require(keccak256(abi.encodePacked((orders[_orderId].status))) != keccak256(abi.encodePacked((\"Accepted\"))), \"Order is already accepted \");\n        require(keccak256(abi.encodePacked((orders[_orderId].status))) != keccak256(abi.encodePacked((\"Cancled\"))), \"Order is Cancled \");\n\n        string memory _msg = \"Order Accepted\";\n        orders[_orderId].buyerAddress = msg.sender;\n        orders[_orderId].buyerDeviceId = _buyerDeviceId;\n        orders[_orderId].status = \"Accepted\";\n        return _msg;\n    }\n    \n    function cancleOrder(uint _orderId) public returns(string memory){\n        require(orders[_orderId].userAddress == msg.sender, \"You are not creator of this order\");\n        \n        string memory _msg = \"Order Cancled\";\n        orders[_orderId].status = \"Cancled\";\n        return _msg;\n    }\n    \n    function deleteOrder(uint _orderId) public{\n        require(orders[_orderId].userAddress == msg.sender, \"You are not creator of this order\");\n        require(keccak256(abi.encodePacked((orders[_orderId].status))) != keccak256(abi.encodePacked((\"Created\"))), \"Order is already accepted \");\n        orders[_orderId].status = \"Deleted\";\n    }\n    \n    function startTrading(uint _orderId, uint _sellerMeterReading, uint _buyerMeterReading) public {\n        require(orders[_orderId].userAddress == msg.sender, \"You are not creator of this order\");\n        require(keccak256(abi.encodePacked((orders[_orderId].status))) == keccak256(abi.encodePacked((\"Accepted\"))), \"Order is not created yet. \");\n        \n        trades[_orderId].tradeStatus = \"Initiated\";\n        trades[_orderId].sellersMeterReading_S = _sellerMeterReading;\n        trades[_orderId].buyersMeterReading_S = _buyerMeterReading;\n        trades[_orderId].tradeStartTime = now;\n\n    }\n    \n    function endTrading(uint _orderId, uint _sellerMeterReading, uint _buyerMeterReading) public {\n        require(orders[_orderId].userAddress == msg.sender, \"You are not creator of this order\");\n        require(keccak256(abi.encodePacked((trades[_orderId].tradeStatus))) == keccak256(abi.encodePacked((\"Initiated\"))), \"Trade is not started yet. \");\n        \n        trades[_orderId].tradeStatus = \"Close\";\n        trades[_orderId].sellersMeterReading_E = _sellerMeterReading;\n        trades[_orderId].buyersMeterReading_E = _buyerMeterReading;\n        trades[_orderId].tradeEndTime = block.timestamp;\n    }\n    \n    function validateTrade(uint _orderId, uint _sellerFine, uint _buyerFine) public{\n        require(keccak256(abi.encodePacked((trades[_orderId].tradeStatus))) == keccak256(abi.encodePacked((\"Close\"))), \"Trade is not ended yet. \");\n\n        trades[_orderId].tradeStatus = \"Order Validated\";\n        trades[_orderId].sellerFine = _sellerFine;\n        trades[_orderId].buyerFine = _buyerFine;\n    }\n    \n    function getTradeDetails(uint _orderId) public view returns(string memory _tradeStatus, uint _sellerMeterReading_S, uint _buyerMeterReading_S, uint _sellerMeterReading_E, uint _buyerMeterReading_E, uint _tradeStart, uint _tradeEnd, uint _sellerFine, uint _buyerFine){\n        \n        _tradeStatus = trades[_orderId].tradeStatus;\n        _sellerMeterReading_S = trades[_orderId].sellersMeterReading_S;\n        _buyerMeterReading_S = trades[_orderId].buyersMeterReading_S;\n        _sellerMeterReading_E = trades[_orderId].sellersMeterReading_E;\n        _buyerMeterReading_E = trades[_orderId].buyersMeterReading_E;\n        _tradeStart = trades[_orderId].tradeStartTime;\n        _tradeEnd = trades[_orderId].tradeEndTime;\n        _sellerFine = trades[_orderId].sellerFine;\n        _buyerFine = trades[_orderId].buyerFine;\n        \n        return(_tradeStatus, _sellerMeterReading_S, _buyerMeterReading_S, _sellerMeterReading_E, _buyerMeterReading_E, _tradeStart, _tradeEnd, _sellerFine, _buyerFine);\n        \n    }\n}",
  "sourcePath": "/home/abc/Public/AliteProjects/Ethereum_Wallet1/Ethereum_Wallet/contracts/SustainImpact.sol",
  "compiler": {
    "name": "solc",
    "version": "0.6.2+commit.bacdbe57.Emscripten.clang"
  },
  "schemaVersion": "3.2.4",
  "updatedAt": "2020-10-30T13:03:02.675Z",
  "devdoc": {
    "methods": {}
  },
  "userdoc": {
    "methods": {}
  }
}